{
  "address": "0x45637e919fBD489100c60B134Fed86d48fDaC81e",
  "abi": [
    {
      "inputs": [
        {
          "internalType": "contract IController",
          "name": "_controller",
          "type": "address"
        },
        {
          "internalType": "contract DssPsmAbstract",
          "name": "psm_",
          "type": "address"
        }
      ],
      "stateMutability": "nonpayable",
      "type": "constructor"
    },
    {
      "inputs": [],
      "name": "UNIT",
      "outputs": [
        {
          "internalType": "uint256",
          "name": "",
          "type": "uint256"
        }
      ],
      "stateMutability": "view",
      "type": "function"
    },
    {
      "inputs": [],
      "name": "WETH",
      "outputs": [
        {
          "internalType": "bytes32",
          "name": "",
          "type": "bytes32"
        }
      ],
      "stateMutability": "view",
      "type": "function"
    },
    {
      "inputs": [
        {
          "internalType": "contract IPool",
          "name": "pool",
          "type": "address"
        },
        {
          "internalType": "bytes32",
          "name": "collateral",
          "type": "bytes32"
        },
        {
          "internalType": "uint256",
          "name": "maturity",
          "type": "uint256"
        },
        {
          "internalType": "address",
          "name": "to",
          "type": "address"
        },
        {
          "internalType": "uint256",
          "name": "usdcToBorrow",
          "type": "uint256"
        },
        {
          "internalType": "uint256",
          "name": "maximumFYDai",
          "type": "uint256"
        }
      ],
      "name": "borrowUSDCForMaximumFYDai",
      "outputs": [
        {
          "internalType": "uint256",
          "name": "",
          "type": "uint256"
        }
      ],
      "stateMutability": "nonpayable",
      "type": "function"
    },
    {
      "inputs": [
        {
          "internalType": "contract IPool",
          "name": "pool",
          "type": "address"
        }
      ],
      "name": "borrowUSDCForMaximumFYDaiApprove",
      "outputs": [],
      "stateMutability": "nonpayable",
      "type": "function"
    },
    {
      "inputs": [
        {
          "internalType": "contract IPool",
          "name": "pool",
          "type": "address"
        },
        {
          "internalType": "bytes32",
          "name": "collateral",
          "type": "bytes32"
        },
        {
          "internalType": "uint256",
          "name": "maturity",
          "type": "uint256"
        },
        {
          "internalType": "address",
          "name": "to",
          "type": "address"
        },
        {
          "internalType": "uint256",
          "name": "usdcToBorrow",
          "type": "uint256"
        },
        {
          "internalType": "uint256",
          "name": "maximumFYDai",
          "type": "uint256"
        },
        {
          "internalType": "bytes",
          "name": "controllerSig",
          "type": "bytes"
        }
      ],
      "name": "borrowUSDCForMaximumFYDaiWithSignature",
      "outputs": [
        {
          "internalType": "uint256",
          "name": "",
          "type": "uint256"
        }
      ],
      "stateMutability": "nonpayable",
      "type": "function"
    },
    {
      "inputs": [],
      "name": "controller",
      "outputs": [
        {
          "internalType": "contract IController",
          "name": "",
          "type": "address"
        }
      ],
      "stateMutability": "view",
      "type": "function"
    },
    {
      "inputs": [],
      "name": "dai",
      "outputs": [
        {
          "internalType": "contract DaiAbstract",
          "name": "",
          "type": "address"
        }
      ],
      "stateMutability": "view",
      "type": "function"
    },
    {
      "inputs": [],
      "name": "psm",
      "outputs": [
        {
          "internalType": "contract DssPsmAbstract",
          "name": "",
          "type": "address"
        }
      ],
      "stateMutability": "view",
      "type": "function"
    },
    {
      "inputs": [
        {
          "internalType": "contract IPool",
          "name": "pool",
          "type": "address"
        },
        {
          "internalType": "bytes32",
          "name": "collateral",
          "type": "bytes32"
        },
        {
          "internalType": "uint256",
          "name": "maturity",
          "type": "uint256"
        },
        {
          "internalType": "address",
          "name": "to",
          "type": "address"
        },
        {
          "internalType": "uint256",
          "name": "maxUSDCIn",
          "type": "uint256"
        }
      ],
      "name": "repayAllEarly",
      "outputs": [
        {
          "internalType": "uint256",
          "name": "",
          "type": "uint256"
        }
      ],
      "stateMutability": "nonpayable",
      "type": "function"
    },
    {
      "inputs": [
        {
          "internalType": "contract IPool",
          "name": "pool",
          "type": "address"
        },
        {
          "internalType": "bytes32",
          "name": "collateral",
          "type": "bytes32"
        },
        {
          "internalType": "uint256",
          "name": "maturity",
          "type": "uint256"
        },
        {
          "internalType": "address",
          "name": "to",
          "type": "address"
        },
        {
          "internalType": "uint256",
          "name": "maxUSDCIn",
          "type": "uint256"
        },
        {
          "internalType": "bytes",
          "name": "usdcSig",
          "type": "bytes"
        },
        {
          "internalType": "bytes",
          "name": "controllerSig",
          "type": "bytes"
        }
      ],
      "name": "repayAllEarlyWithSignature",
      "outputs": [
        {
          "internalType": "uint256",
          "name": "",
          "type": "uint256"
        }
      ],
      "stateMutability": "nonpayable",
      "type": "function"
    },
    {
      "inputs": [
        {
          "internalType": "bytes32",
          "name": "collateral",
          "type": "bytes32"
        },
        {
          "internalType": "uint256",
          "name": "maturity",
          "type": "uint256"
        },
        {
          "internalType": "address",
          "name": "to",
          "type": "address"
        }
      ],
      "name": "repayAllMature",
      "outputs": [
        {
          "internalType": "uint256",
          "name": "",
          "type": "uint256"
        }
      ],
      "stateMutability": "nonpayable",
      "type": "function"
    },
    {
      "inputs": [
        {
          "internalType": "bytes32",
          "name": "collateral",
          "type": "bytes32"
        },
        {
          "internalType": "uint256",
          "name": "maturity",
          "type": "uint256"
        },
        {
          "internalType": "address",
          "name": "to",
          "type": "address"
        },
        {
          "internalType": "bytes",
          "name": "usdcSig",
          "type": "bytes"
        },
        {
          "internalType": "bytes",
          "name": "controllerSig",
          "type": "bytes"
        }
      ],
      "name": "repayAllMatureWithSignature",
      "outputs": [
        {
          "internalType": "uint256",
          "name": "",
          "type": "uint256"
        }
      ],
      "stateMutability": "nonpayable",
      "type": "function"
    },
    {
      "inputs": [
        {
          "internalType": "contract IPool",
          "name": "pool",
          "type": "address"
        },
        {
          "internalType": "bytes32",
          "name": "collateral",
          "type": "bytes32"
        },
        {
          "internalType": "uint256",
          "name": "maturity",
          "type": "uint256"
        },
        {
          "internalType": "address",
          "name": "to",
          "type": "address"
        },
        {
          "internalType": "uint256",
          "name": "usdcRepayment",
          "type": "uint256"
        },
        {
          "internalType": "uint256",
          "name": "minFYDaiRepayment",
          "type": "uint256"
        }
      ],
      "name": "repayDebtEarly",
      "outputs": [
        {
          "internalType": "uint256",
          "name": "",
          "type": "uint256"
        }
      ],
      "stateMutability": "nonpayable",
      "type": "function"
    },
    {
      "inputs": [
        {
          "internalType": "contract IPool",
          "name": "pool",
          "type": "address"
        }
      ],
      "name": "repayDebtEarlyApprove",
      "outputs": [],
      "stateMutability": "nonpayable",
      "type": "function"
    },
    {
      "inputs": [
        {
          "internalType": "contract IPool",
          "name": "pool",
          "type": "address"
        },
        {
          "internalType": "bytes32",
          "name": "collateral",
          "type": "bytes32"
        },
        {
          "internalType": "uint256",
          "name": "maturity",
          "type": "uint256"
        },
        {
          "internalType": "address",
          "name": "to",
          "type": "address"
        },
        {
          "internalType": "uint256",
          "name": "repaymentInUSDC",
          "type": "uint256"
        },
        {
          "internalType": "uint256",
          "name": "fyDaiDebt",
          "type": "uint256"
        },
        {
          "internalType": "bytes",
          "name": "usdcSig",
          "type": "bytes"
        },
        {
          "internalType": "bytes",
          "name": "controllerSig",
          "type": "bytes"
        }
      ],
      "name": "repayDebtEarlyWithSignature",
      "outputs": [
        {
          "internalType": "uint256",
          "name": "",
          "type": "uint256"
        }
      ],
      "stateMutability": "nonpayable",
      "type": "function"
    },
    {
      "inputs": [
        {
          "internalType": "bytes32",
          "name": "collateral",
          "type": "bytes32"
        },
        {
          "internalType": "uint256",
          "name": "maturity",
          "type": "uint256"
        },
        {
          "internalType": "address",
          "name": "to",
          "type": "address"
        },
        {
          "internalType": "uint256",
          "name": "daiRepayment",
          "type": "uint256"
        }
      ],
      "name": "repayDebtMature",
      "outputs": [
        {
          "internalType": "uint256",
          "name": "",
          "type": "uint256"
        }
      ],
      "stateMutability": "nonpayable",
      "type": "function"
    },
    {
      "inputs": [],
      "name": "repayDebtMatureApprove",
      "outputs": [],
      "stateMutability": "nonpayable",
      "type": "function"
    },
    {
      "inputs": [
        {
          "internalType": "bytes32",
          "name": "collateral",
          "type": "bytes32"
        },
        {
          "internalType": "uint256",
          "name": "maturity",
          "type": "uint256"
        },
        {
          "internalType": "address",
          "name": "to",
          "type": "address"
        },
        {
          "internalType": "uint256",
          "name": "repaymentInUSDC",
          "type": "uint256"
        },
        {
          "internalType": "bytes",
          "name": "usdcSig",
          "type": "bytes"
        },
        {
          "internalType": "bytes",
          "name": "controllerSig",
          "type": "bytes"
        }
      ],
      "name": "repayDebtMatureWithSignature",
      "outputs": [
        {
          "internalType": "uint256",
          "name": "",
          "type": "uint256"
        }
      ],
      "stateMutability": "nonpayable",
      "type": "function"
    },
    {
      "inputs": [],
      "name": "tin",
      "outputs": [
        {
          "internalType": "uint256",
          "name": "",
          "type": "uint256"
        }
      ],
      "stateMutability": "view",
      "type": "function"
    },
    {
      "inputs": [],
      "name": "tout",
      "outputs": [
        {
          "internalType": "uint256",
          "name": "",
          "type": "uint256"
        }
      ],
      "stateMutability": "view",
      "type": "function"
    },
    {
      "inputs": [],
      "name": "treasury",
      "outputs": [
        {
          "internalType": "address",
          "name": "",
          "type": "address"
        }
      ],
      "stateMutability": "view",
      "type": "function"
    },
    {
      "inputs": [],
      "name": "usdc",
      "outputs": [
        {
          "internalType": "contract IUSDC",
          "name": "",
          "type": "address"
        }
      ],
      "stateMutability": "view",
      "type": "function"
    }
  ],
  "transactionHash": "0xd83a9666e9fc07067407058977fc427614c5a8c6215b0c1c117417c7c9dc3919",
  "args": [
    "0xB94199866Fe06B535d019C11247D3f921460b91A",
    "0x89B78CfA322F6C5dE0aBcEecab66Aee45393cC5A"
  ],
  "solcInputHash": "097d5cf91e8e12034f842c70ffd0dfc4",
  "bytecode": "0x6101206040523480156200001257600080fd5b5060405162003c2838038062003c28833981810160405260408110156200003857600080fd5b508051602091820151604080516361d027b360e01b81529051929391926000926001600160a01b038616926361d027b39260048083019392829003018186803b1580156200008557600080fd5b505afa1580156200009a573d6000803e3d6000fd5b505050506040513d6020811015620000b157600080fd5b50516040805163f4b9fa7560e01b815290519192506001600160a01b0383169163f4b9fa7591600480820192602092909190829003018186803b158015620000f857600080fd5b505afa1580156200010d573d6000803e3d6000fd5b505050506040513d60208110156200012457600080fd5b50516001600160601b0319606091821b811660805282821b81166101005284821b811660c0529083901b1660e0526040805162b327b360e11b815290516001600160a01b038416916301664f66916004808301926020929190829003018186803b1580156200019257600080fd5b505afa158015620001a7573d6000803e3d6000fd5b505050506040513d6020811015620001be57600080fd5b505160408051637bd2bea760e01b815290516001600160a01b0390921691637bd2bea791600480820192602092909190829003018186803b1580156200020357600080fd5b505afa15801562000218573d6000803e3d6000fd5b505050506040513d60208110156200022f57600080fd5b50516001600160601b031960609190911b1660a05250505060805160601c60a05160601c60c05160601c60e05160601c6101005160601c6138a2620003866000398061180252806121fc52806122e052806128f55280612a29525080610a5b5280610cef52806110b15280611308528061151c528061176b5280611cda5280611dbe5280611f14528061208752806123ea528061255d5280612ad35280612c6b5280612f2a52806134365280613611525080610aa95280610b685280610f23528061112752806116be528061189d52806119585280611a195280612e7c5280612f045280612f9852806136d1525080610b1a528061145b5280611745528061184f528061190a52806119cb5280611ed7528061204b52806123ad52806125215280612ba9528061354f525080611d085280611d82528061222a52806122a452806126e0528061275a5280612a8752506138a26000f3fe608060405234801561001057600080fd5b50600436106101825760003560e01c806398e42ce7116100d8578063e03d5fdb1161008c578063f77c479111610066578063f77c479114610a0a578063fae036d514610a12578063fb2393fd14610a1a57610182565b8063e03d5fdb1461097a578063f4b9fa75146109ad578063f6f71a50146109b557610182565b8063ad5c4648116100bd578063ad5c464814610925578063b15f789a1461092d578063be36affc1461097257610182565b806398e42ce7146108e85780639d8e21771461091d57610182565b80633e413bee1161013a5780636d322b3a116101145780636d322b3a146104c45780638f302ba41461061a5780638f9ae61d1461078557610182565b80633e413bee146104ac578063568d4b6f146104b457806361d027b3146104bc57610182565b8063227bb1e21161016b578063227bb1e2146102ad5780632f28e497146104085780633405d2af1461045d57610182565b806304bda26214610187578063212755bf146101b8575b600080fd5b61018f610a59565b6040805173ffffffffffffffffffffffffffffffffffffffff9092168252519081900360200190f35b61029b600480360360e08110156101ce57600080fd5b73ffffffffffffffffffffffffffffffffffffffff82358116926020810135926040820135926060830135169160808101359160a0820135919081019060e0810160c082013564010000000081111561022657600080fd5b82018360208201111561023857600080fd5b8035906020019184600183028401116401000000008311171561025a57600080fd5b91908080601f016020809104026020016040519081016040528093929190818152602001838380828437600092019190915250929550610a7d945050505050565b60408051918252519081900360200190f35b61029b600480360360c08110156102c357600080fd5b81359160208101359173ffffffffffffffffffffffffffffffffffffffff6040830135169160608101359181019060a08101608082013564010000000081111561030c57600080fd5b82018360208201111561031e57600080fd5b8035906020019184600183028401116401000000008311171561034057600080fd5b91908080601f016020809104026020016040519081016040528093929190818152602001838380828437600092019190915250929594936020810193503591505064010000000081111561039357600080fd5b8201836020820111156103a557600080fd5b803590602001918460018302840111640100000000831117156103c757600080fd5b91908080601f016020809104026020016040519081016040528093929190818152602001838380828437600092019190915250929550610aef945050505050565b61029b600480360360c081101561041e57600080fd5b5073ffffffffffffffffffffffffffffffffffffffff813581169160208101359160408201359160608101359091169060808101359060a00135610bab565b61029b600480360360a081101561047357600080fd5b5073ffffffffffffffffffffffffffffffffffffffff813581169160208101359160408201359160608101359091169060800135611122565b61018f611743565b61029b611767565b61018f611800565b61029b600480360360a08110156104da57600080fd5b81359160208101359173ffffffffffffffffffffffffffffffffffffffff604083013516919081019060808101606082013564010000000081111561051e57600080fd5b82018360208201111561053057600080fd5b8035906020019184600183028401116401000000008311171561055257600080fd5b91908080601f01602080910402602001604051908101604052809392919081815260200183838082843760009201919091525092959493602081019350359150506401000000008111156105a557600080fd5b8201836020820111156105b757600080fd5b803590602001918460018302840111640100000000831117156105d957600080fd5b91908080601f016020809104026020016040519081016040528093929190818152602001838380828437600092019190915250929550611824945050505050565b61029b600480360361010081101561063157600080fd5b73ffffffffffffffffffffffffffffffffffffffff82358116926020810135926040820135926060830135169160808101359160a0820135919081019060e0810160c082013564010000000081111561068957600080fd5b82018360208201111561069b57600080fd5b803590602001918460018302840111640100000000831117156106bd57600080fd5b91908080601f016020809104026020016040519081016040528093929190818152602001838380828437600092019190915250929594936020810193503591505064010000000081111561071057600080fd5b82018360208201111561072257600080fd5b8035906020019184600183028401116401000000008311171561074457600080fd5b91908080601f0160208091040260200160405190810160405280939291908181526020018383808284376000920191909152509295506118de945050505050565b61029b600480360360e081101561079b57600080fd5b73ffffffffffffffffffffffffffffffffffffffff82358116926020810135926040820135926060830135169160808101359181019060c0810160a08201356401000000008111156107ec57600080fd5b8201836020820111156107fe57600080fd5b8035906020019184600183028401116401000000008311171561082057600080fd5b91908080601f016020809104026020016040519081016040528093929190818152602001838380828437600092019190915250929594936020810193503591505064010000000081111561087357600080fd5b82018360208201111561088557600080fd5b803590602001918460018302840111640100000000831117156108a757600080fd5b91908080601f01602080910402602001604051908101604052809392919081815260200183838082843760009201919091525092955061199f945050505050565b61091b600480360360208110156108fe57600080fd5b503573ffffffffffffffffffffffffffffffffffffffff16611a52565b005b61029b611e79565b61029b611e89565b61029b6004803603608081101561094357600080fd5b5080359060208101359073ffffffffffffffffffffffffffffffffffffffff6040820135169060600135611ead565b61091b611ec4565b61091b6004803603602081101561099057600080fd5b503573ffffffffffffffffffffffffffffffffffffffff1661239a565b61018f612a85565b61029b600480360360c08110156109cb57600080fd5b5073ffffffffffffffffffffffffffffffffffffffff813581169160208101359160408201359160608101359091169060808101359060a00135612aa9565b61018f612f02565b61029b612f26565b61029b60048036036060811015610a3057600080fd5b508035906020810135906040013573ffffffffffffffffffffffffffffffffffffffff16612f8e565b7f000000000000000000000000000000000000000000000000000000000000000081565b6000610a8888611a52565b815115610ad557610ad573ffffffffffffffffffffffffffffffffffffffff7f0000000000000000000000000000000000000000000000000000000000000000168363ffffffff61307c16565b610ae3888888888888610bab565b98975050505050505050565b6000610af9611ec4565b825115610b4757610b4773ffffffffffffffffffffffffffffffffffffffff7f000000000000000000000000000000000000000000000000000000000000000016308563ffffffff61314416565b815115610b9457610b9473ffffffffffffffffffffffffffffffffffffffff7f0000000000000000000000000000000000000000000000000000000000000000168363ffffffff61307c16565b610ba087878787611ead565b979650505050505050565b60008673ffffffffffffffffffffffffffffffffffffffff1663284f44446040518163ffffffff1660e01b815260040160206040518083038186803b158015610bf357600080fd5b505afa158015610c07573d6000803e3d6000fd5b505050506040513d6020811015610c1d57600080fd5b5051604080517f095ea7b300000000000000000000000000000000000000000000000000000000815273ffffffffffffffffffffffffffffffffffffffff8a8116600483015260001960248301529151919092169163095ea7b39160448083019260209291908290030181600087803b158015610c9957600080fd5b505af1158015610cad573d6000803e3d6000fd5b505050506040513d6020811015610cc357600080fd5b5060009050610cdd8464e8d4a5100063ffffffff61321716565b90506000670de0b6b3a7640000610d8c7f000000000000000000000000000000000000000000000000000000000000000073ffffffffffffffffffffffffffffffffffffffff1663fae036d56040518163ffffffff1660e01b815260040160206040518083038186803b158015610d5357600080fd5b505afa158015610d67573d6000803e3d6000fd5b505050506040513d6020811015610d7d57600080fd5b5051849063ffffffff61321716565b81610d9357fe5b0490506000610da8838363ffffffff61329316565b905060008a73ffffffffffffffffffffffffffffffffffffffff16634e20e952610dd184613307565b6040518263ffffffff1660e01b815260040180826fffffffffffffffffffffffffffffffff166fffffffffffffffffffffffffffffffff16815260200191505060206040518083038186803b158015610e2957600080fd5b505afa158015610e3d573d6000803e3d6000fd5b505050506040513d6020811015610e5357600080fd5b50516fffffffffffffffffffffffffffffffff16905085811115610ec2576040517f08c379a00000000000000000000000000000000000000000000000000000000081526004018080602001828103825260228152602001806137e86022913960400191505060405180910390fd5b604080517f801d325f000000000000000000000000000000000000000000000000000000008152600481018c9052602481018b905233604482015230606482015260848101839052905173ffffffffffffffffffffffffffffffffffffffff7f0000000000000000000000000000000000000000000000000000000000000000169163801d325f9160a480830192600092919082900301818387803b158015610f6a57600080fd5b505af1158015610f7e573d6000803e3d6000fd5b505050508a73ffffffffffffffffffffffffffffffffffffffff1663cc5783d33030610fa986613307565b604080517fffffffff0000000000000000000000000000000000000000000000000000000060e087901b16815273ffffffffffffffffffffffffffffffffffffffff94851660048201529290931660248301526fffffffffffffffffffffffffffffffff166044820152905160648083019260209291908290030181600087803b15801561103657600080fd5b505af115801561104a573d6000803e3d6000fd5b505050506040513d602081101561106057600080fd5b5050604080517f8d7ef9bb00000000000000000000000000000000000000000000000000000000815273ffffffffffffffffffffffffffffffffffffffff8a81166004830152602482018a905291517f000000000000000000000000000000000000000000000000000000000000000090921691638d7ef9bb9160448082019260009290919082900301818387803b1580156110fb57600080fd5b505af115801561110f573d6000803e3d6000fd5b50929d9c50505050505050505050505050565b6000807f000000000000000000000000000000000000000000000000000000000000000073ffffffffffffffffffffffffffffffffffffffff166393252ed48787876040518463ffffffff1660e01b8152600401808481526020018381526020018273ffffffffffffffffffffffffffffffffffffffff1673ffffffffffffffffffffffffffffffffffffffff168152602001935050505060206040518083038186803b1580156111d257600080fd5b505afa1580156111e6573d6000803e3d6000fd5b505050506040513d60208110156111fc57600080fd5b50519050600073ffffffffffffffffffffffffffffffffffffffff88166398ba4aec61122784613307565b6040518263ffffffff1660e01b815260040180826fffffffffffffffffffffffffffffffff166fffffffffffffffffffffffffffffffff16815260200191505060206040518083038186803b15801561127f57600080fd5b505afa158015611293573d6000803e3d6000fd5b505050506040513d60208110156112a957600080fd5b5051604080517f568d4b6f00000000000000000000000000000000000000000000000000000000815290516fffffffffffffffffffffffffffffffff90921692506000916113949173ffffffffffffffffffffffffffffffffffffffff7f0000000000000000000000000000000000000000000000000000000000000000169163568d4b6f91600480820192602092909190829003018186803b15801561134f57600080fd5b505afa158015611363573d6000803e3d6000fd5b505050506040513d602081101561137957600080fd5b5051670de0b6b3a7640000848102910163ffffffff61338c16565b905060006113ad8264e8d4a5100063ffffffff61338c16565b905085811115611408576040517f08c379a000000000000000000000000000000000000000000000000000000000815260040180806020018281038252602181526020018061384c6021913960400191505060405180910390fd5b604080517f23b872dd00000000000000000000000000000000000000000000000000000000815233600482015230602482015260448101839052905173ffffffffffffffffffffffffffffffffffffffff7f000000000000000000000000000000000000000000000000000000000000000016916323b872dd9160648083019260209291908290030181600087803b1580156114a357600080fd5b505af11580156114b7573d6000803e3d6000fd5b505050506040513d60208110156114cd57600080fd5b5050604080517f9599127600000000000000000000000000000000000000000000000000000000815230600482015260248101839052905173ffffffffffffffffffffffffffffffffffffffff7f00000000000000000000000000000000000000000000000000000000000000001691639599127691604480830192600092919082900301818387803b15801561156357600080fd5b505af1158015611577573d6000803e3d6000fd5b505050508973ffffffffffffffffffffffffffffffffffffffff16637543e39c30306115a288613307565b604080517fffffffff0000000000000000000000000000000000000000000000000000000060e087901b16815273ffffffffffffffffffffffffffffffffffffffff94851660048201529290931660248301526fffffffffffffffffffffffffffffffff166044820152905160648083019260209291908290030181600087803b15801561162f57600080fd5b505af1158015611643573d6000803e3d6000fd5b505050506040513d602081101561165957600080fd5b5050604080517fb93dd41d000000000000000000000000000000000000000000000000000000008152600481018b9052602481018a905230604482015273ffffffffffffffffffffffffffffffffffffffff89811660648301526084820187905291517f00000000000000000000000000000000000000000000000000000000000000009092169163b93dd41d9160a4808201926020929091908290030181600087803b15801561170957600080fd5b505af115801561171d573d6000803e3d6000fd5b505050506040513d602081101561173357600080fd5b50909a9950505050505050505050565b7f000000000000000000000000000000000000000000000000000000000000000081565b60007f000000000000000000000000000000000000000000000000000000000000000073ffffffffffffffffffffffffffffffffffffffff1663568d4b6f6040518163ffffffff1660e01b815260040160206040518083038186803b1580156117cf57600080fd5b505afa1580156117e3573d6000803e3d6000fd5b505050506040513d60208110156117f957600080fd5b5051905090565b7f000000000000000000000000000000000000000000000000000000000000000081565b600061182e611ec4565b82511561187c5761187c73ffffffffffffffffffffffffffffffffffffffff7f000000000000000000000000000000000000000000000000000000000000000016308563ffffffff61314416565b8151156118c9576118c973ffffffffffffffffffffffffffffffffffffffff7f0000000000000000000000000000000000000000000000000000000000000000168363ffffffff61307c16565b6118d4868686612f8e565b9695505050505050565b60006118e98961239a565b8251156119375761193773ffffffffffffffffffffffffffffffffffffffff7f000000000000000000000000000000000000000000000000000000000000000016308563ffffffff61314416565b8151156119845761198473ffffffffffffffffffffffffffffffffffffffff7f0000000000000000000000000000000000000000000000000000000000000000168363ffffffff61307c16565b611992898989898989612aa9565b9998505050505050505050565b60006119aa8861239a565b8251156119f8576119f873ffffffffffffffffffffffffffffffffffffffff7f000000000000000000000000000000000000000000000000000000000000000016308563ffffffff61314416565b815115611a4557611a4573ffffffffffffffffffffffffffffffffffffffff7f0000000000000000000000000000000000000000000000000000000000000000168363ffffffff61307c16565b610ae38888888888611122565b6dffffffffffffffffffffffffffff80168173ffffffffffffffffffffffffffffffffffffffff1663284f44446040518163ffffffff1660e01b815260040160206040518083038186803b158015611aa957600080fd5b505afa158015611abd573d6000803e3d6000fd5b505050506040513d6020811015611ad357600080fd5b5051604080517fdd62ed3e00000000000000000000000000000000000000000000000000000000815230600482015273ffffffffffffffffffffffffffffffffffffffff85811660248301529151919092169163dd62ed3e916044808301926020929190829003018186803b158015611b4b57600080fd5b505afa158015611b5f573d6000803e3d6000fd5b505050506040513d6020811015611b7557600080fd5b50511015611c96578073ffffffffffffffffffffffffffffffffffffffff1663284f44446040518163ffffffff1660e01b815260040160206040518083038186803b158015611bc357600080fd5b505afa158015611bd7573d6000803e3d6000fd5b505050506040513d6020811015611bed57600080fd5b5051604080517f095ea7b300000000000000000000000000000000000000000000000000000000815273ffffffffffffffffffffffffffffffffffffffff848116600483015260001960248301529151919092169163095ea7b39160448083019260209291908290030181600087803b158015611c6957600080fd5b505af1158015611c7d573d6000803e3d6000fd5b505050506040513d6020811015611c9357600080fd5b50505b604080517fdd62ed3e00000000000000000000000000000000000000000000000000000000815230600482015273ffffffffffffffffffffffffffffffffffffffff7f0000000000000000000000000000000000000000000000000000000000000000811660248301529151600019927f0000000000000000000000000000000000000000000000000000000000000000169163dd62ed3e916044808301926020929190829003018186803b158015611d4e57600080fd5b505afa158015611d62573d6000803e3d6000fd5b505050506040513d6020811015611d7857600080fd5b50511015611e76577f000000000000000000000000000000000000000000000000000000000000000073ffffffffffffffffffffffffffffffffffffffff1663095ea7b37f00000000000000000000000000000000000000000000000000000000000000006000196040518363ffffffff1660e01b8152600401808373ffffffffffffffffffffffffffffffffffffffff1673ffffffffffffffffffffffffffffffffffffffff16815260200182815260200192505050602060405180830381600087803b158015611e4957600080fd5b505af1158015611e5d573d6000803e3d6000fd5b505050506040513d6020811015611e7357600080fd5b50505b50565b6b033b2e3c9fd0803ce800000081565b7f4554482d4100000000000000000000000000000000000000000000000000000081565b6000611ebb8585858561342e565b95945050505050565b6dffffffffffffffffffffffffffff80167f000000000000000000000000000000000000000000000000000000000000000073ffffffffffffffffffffffffffffffffffffffff1663dd62ed3e307f000000000000000000000000000000000000000000000000000000000000000073ffffffffffffffffffffffffffffffffffffffff166301664f666040518163ffffffff1660e01b815260040160206040518083038186803b158015611f7857600080fd5b505afa158015611f8c573d6000803e3d6000fd5b505050506040513d6020811015611fa257600080fd5b5051604080517fffffffff0000000000000000000000000000000000000000000000000000000060e086901b16815273ffffffffffffffffffffffffffffffffffffffff9384166004820152929091166024830152516044808301926020929190829003018186803b15801561201757600080fd5b505afa15801561202b573d6000803e3d6000fd5b505050506040513d602081101561204157600080fd5b505110156121b8577f000000000000000000000000000000000000000000000000000000000000000073ffffffffffffffffffffffffffffffffffffffff1663095ea7b37f000000000000000000000000000000000000000000000000000000000000000073ffffffffffffffffffffffffffffffffffffffff166301664f666040518163ffffffff1660e01b815260040160206040518083038186803b1580156120eb57600080fd5b505afa1580156120ff573d6000803e3d6000fd5b505050506040513d602081101561211557600080fd5b5051604080517fffffffff0000000000000000000000000000000000000000000000000000000060e085901b16815273ffffffffffffffffffffffffffffffffffffffff909216600483015260001960248301525160448083019260209291908290030181600087803b15801561218b57600080fd5b505af115801561219f573d6000803e3d6000fd5b505050506040513d60208110156121b557600080fd5b50505b604080517fdd62ed3e00000000000000000000000000000000000000000000000000000000815230600482015273ffffffffffffffffffffffffffffffffffffffff7f0000000000000000000000000000000000000000000000000000000000000000811660248301529151600019927f0000000000000000000000000000000000000000000000000000000000000000169163dd62ed3e916044808301926020929190829003018186803b15801561227057600080fd5b505afa158015612284573d6000803e3d6000fd5b505050506040513d602081101561229a57600080fd5b50511015612398577f000000000000000000000000000000000000000000000000000000000000000073ffffffffffffffffffffffffffffffffffffffff1663095ea7b37f00000000000000000000000000000000000000000000000000000000000000006000196040518363ffffffff1660e01b8152600401808373ffffffffffffffffffffffffffffffffffffffff1673ffffffffffffffffffffffffffffffffffffffff16815260200182815260200192505050602060405180830381600087803b15801561236b57600080fd5b505af115801561237f573d6000803e3d6000fd5b505050506040513d602081101561239557600080fd5b50505b565b6dffffffffffffffffffffffffffff80167f000000000000000000000000000000000000000000000000000000000000000073ffffffffffffffffffffffffffffffffffffffff1663dd62ed3e307f000000000000000000000000000000000000000000000000000000000000000073ffffffffffffffffffffffffffffffffffffffff166301664f666040518163ffffffff1660e01b815260040160206040518083038186803b15801561244e57600080fd5b505afa158015612462573d6000803e3d6000fd5b505050506040513d602081101561247857600080fd5b5051604080517fffffffff0000000000000000000000000000000000000000000000000000000060e086901b16815273ffffffffffffffffffffffffffffffffffffffff9384166004820152929091166024830152516044808301926020929190829003018186803b1580156124ed57600080fd5b505afa158015612501573d6000803e3d6000fd5b505050506040513d602081101561251757600080fd5b5051101561268e577f000000000000000000000000000000000000000000000000000000000000000073ffffffffffffffffffffffffffffffffffffffff1663095ea7b37f000000000000000000000000000000000000000000000000000000000000000073ffffffffffffffffffffffffffffffffffffffff166301664f666040518163ffffffff1660e01b815260040160206040518083038186803b1580156125c157600080fd5b505afa1580156125d5573d6000803e3d6000fd5b505050506040513d60208110156125eb57600080fd5b5051604080517fffffffff0000000000000000000000000000000000000000000000000000000060e085901b16815273ffffffffffffffffffffffffffffffffffffffff909216600483015260001960248301525160448083019260209291908290030181600087803b15801561266157600080fd5b505af1158015612675573d6000803e3d6000fd5b505050506040513d602081101561268b57600080fd5b50505b604080517fdd62ed3e00000000000000000000000000000000000000000000000000000000815230600482015273ffffffffffffffffffffffffffffffffffffffff83811660248301529151600019927f0000000000000000000000000000000000000000000000000000000000000000169163dd62ed3e916044808301926020929190829003018186803b15801561272657600080fd5b505afa15801561273a573d6000803e3d6000fd5b505050506040513d602081101561275057600080fd5b5051101561282e577f000000000000000000000000000000000000000000000000000000000000000073ffffffffffffffffffffffffffffffffffffffff1663095ea7b3826000196040518363ffffffff1660e01b8152600401808373ffffffffffffffffffffffffffffffffffffffff1673ffffffffffffffffffffffffffffffffffffffff16815260200182815260200192505050602060405180830381600087803b15801561280157600080fd5b505af1158015612815573d6000803e3d6000fd5b505050506040513d602081101561282b57600080fd5b50505b6dffffffffffffffffffffffffffff80168173ffffffffffffffffffffffffffffffffffffffff1663284f44446040518163ffffffff1660e01b815260040160206040518083038186803b15801561288557600080fd5b505afa158015612899573d6000803e3d6000fd5b505050506040513d60208110156128af57600080fd5b5051604080517fdd62ed3e00000000000000000000000000000000000000000000000000000000815230600482015273ffffffffffffffffffffffffffffffffffffffff7f0000000000000000000000000000000000000000000000000000000000000000811660248301529151919092169163dd62ed3e916044808301926020929190829003018186803b15801561294757600080fd5b505afa15801561295b573d6000803e3d6000fd5b505050506040513d602081101561297157600080fd5b50511015611e76578073ffffffffffffffffffffffffffffffffffffffff1663284f44446040518163ffffffff1660e01b815260040160206040518083038186803b1580156129bf57600080fd5b505afa1580156129d3573d6000803e3d6000fd5b505050506040513d60208110156129e957600080fd5b5051604080517f095ea7b300000000000000000000000000000000000000000000000000000000815273ffffffffffffffffffffffffffffffffffffffff7f00000000000000000000000000000000000000000000000000000000000000008116600483015260001960248301529151919092169163095ea7b39160448083019260209291908290030181600087803b158015611e4957600080fd5b7f000000000000000000000000000000000000000000000000000000000000000081565b600080612ac18464e8d4a5100063ffffffff61321716565b90506000670de0b6b3a7640000612b377f000000000000000000000000000000000000000000000000000000000000000073ffffffffffffffffffffffffffffffffffffffff1663568d4b6f6040518163ffffffff1660e01b815260040160206040518083038186803b158015610d5357600080fd5b81612b3e57fe5b0490506000612b53838363ffffffff61375516565b604080517f23b872dd00000000000000000000000000000000000000000000000000000000815233600482015230602482015260448101899052905191925073ffffffffffffffffffffffffffffffffffffffff7f000000000000000000000000000000000000000000000000000000000000000016916323b872dd916064808201926020929091908290030181600087803b158015612bf257600080fd5b505af1158015612c06573d6000803e3d6000fd5b505050506040513d6020811015612c1c57600080fd5b5050604080517f9599127600000000000000000000000000000000000000000000000000000000815230600482015260248101889052905173ffffffffffffffffffffffffffffffffffffffff7f00000000000000000000000000000000000000000000000000000000000000001691639599127691604480830192600092919082900301818387803b158015612cb257600080fd5b505af1158015612cc6573d6000803e3d6000fd5b5050505060008a73ffffffffffffffffffffffffffffffffffffffff1663b26be9223030612cf386613307565b604080517fffffffff0000000000000000000000000000000000000000000000000000000060e087901b16815273ffffffffffffffffffffffffffffffffffffffff94851660048201529290931660248301526fffffffffffffffffffffffffffffffff166044820152905160648083019260209291908290030181600087803b158015612d8057600080fd5b505af1158015612d94573d6000803e3d6000fd5b505050506040513d6020811015612daa57600080fd5b50516fffffffffffffffffffffffffffffffff16905085811015612e19576040517f08c379a000000000000000000000000000000000000000000000000000000000815260040180806020018281038252602181526020018061380a6021913960400191505060405180910390fd5b604080517fb93dd41d000000000000000000000000000000000000000000000000000000008152600481018c9052602481018b905230604482015273ffffffffffffffffffffffffffffffffffffffff8a811660648301526084820184905291517f00000000000000000000000000000000000000000000000000000000000000009092169163b93dd41d9160a4808201926020929091908290030181600087803b158015612ec757600080fd5b505af1158015612edb573d6000803e3d6000fd5b505050506040513d6020811015612ef157600080fd5b50919b9a5050505050505050505050565b7f000000000000000000000000000000000000000000000000000000000000000081565b60007f000000000000000000000000000000000000000000000000000000000000000073ffffffffffffffffffffffffffffffffffffffff1663fae036d56040518163ffffffff1660e01b815260040160206040518083038186803b1580156117cf57600080fd5b60006130748484847f000000000000000000000000000000000000000000000000000000000000000073ffffffffffffffffffffffffffffffffffffffff1663c5ec0c178989336040518463ffffffff1660e01b8152600401808481526020018381526020018273ffffffffffffffffffffffffffffffffffffffff1673ffffffffffffffffffffffffffffffffffffffff168152602001935050505060206040518083038186803b15801561304357600080fd5b505afa158015613057573d6000803e3d6000fd5b505050506040513d602081101561306d57600080fd5b505161342e565b949350505050565b600080600061308a846137cc565b604080517f1a28ff05000000000000000000000000000000000000000000000000000000008152336004820152306024820152600019604482015260ff831660648201526084810185905260a481018490529051939650919450925073ffffffffffffffffffffffffffffffffffffffff871691631a28ff059160c48082019260009290919082900301818387803b15801561312557600080fd5b505af1158015613139573d6000803e3d6000fd5b505050505050505050565b6000806000613152846137cc565b604080517fd505accf00000000000000000000000000000000000000000000000000000000815233600482015273ffffffffffffffffffffffffffffffffffffffff8a8116602483015260001960448301819052606483015260ff8416608483015260a4820186905260c48201859052915194975092955090935088169163d505accf9160e48082019260009290919082900301818387803b1580156131f757600080fd5b505af115801561320b573d6000803e3d6000fd5b50505050505050505050565b6000826132265750600061328d565b8282028284828161323357fe5b041461328a576040517f08c379a000000000000000000000000000000000000000000000000000000000815260040180806020018281038252602181526020018061382b6021913960400191505060405180910390fd5b90505b92915050565b60008282018381101561328a57604080517f08c379a000000000000000000000000000000000000000000000000000000000815260206004820152601b60248201527f536166654d6174683a206164646974696f6e206f766572666c6f770000000000604482015290519081900360640190fd5b60006fffffffffffffffffffffffffffffffff82111561338857604080517f08c379a000000000000000000000000000000000000000000000000000000000815260206004820152601760248201527f53616665436173743a2043617374206f766572666c6f77000000000000000000604482015290519081900360640190fd5b5090565b60008082116133fc57604080517f08c379a000000000000000000000000000000000000000000000000000000000815260206004820152601b60248201527f5553444350726f78793a204469766973696f6e206279207a65726f0000000000604482015290519081900360640190fd5b81838161340557fe5b061561341d5781838161341457fe5b0460010161328a565b81838161342657fe5b049392505050565b6000806134e07f000000000000000000000000000000000000000000000000000000000000000073ffffffffffffffffffffffffffffffffffffffff1663568d4b6f6040518163ffffffff1660e01b815260040160206040518083038186803b15801561349a57600080fd5b505afa1580156134ae573d6000803e3d6000fd5b505050506040513d60208110156134c457600080fd5b5051670de0b6b3a764000085810291900363ffffffff61338c16565b905060006134f98264e8d4a5100063ffffffff61338c16565b604080517f23b872dd00000000000000000000000000000000000000000000000000000000815233600482015230602482015260448101839052905191925073ffffffffffffffffffffffffffffffffffffffff7f000000000000000000000000000000000000000000000000000000000000000016916323b872dd916064808201926020929091908290030181600087803b15801561359857600080fd5b505af11580156135ac573d6000803e3d6000fd5b505050506040513d60208110156135c257600080fd5b5050604080517f9599127600000000000000000000000000000000000000000000000000000000815230600482015260248101839052905173ffffffffffffffffffffffffffffffffffffffff7f00000000000000000000000000000000000000000000000000000000000000001691639599127691604480830192600092919082900301818387803b15801561365857600080fd5b505af115801561366c573d6000803e3d6000fd5b5050604080517f25d3cd17000000000000000000000000000000000000000000000000000000008152600481018b9052602481018a905230604482015273ffffffffffffffffffffffffffffffffffffffff89811660648301526084820189905291517f000000000000000000000000000000000000000000000000000000000000000090921693506325d3cd17925060a4808201926020929091908290030181600087803b15801561371e57600080fd5b505af1158015613732573d6000803e3d6000fd5b505050506040513d602081101561374857600080fd5b5090979650505050505050565b6000828211156137c657604080517f08c379a000000000000000000000000000000000000000000000000000000000815260206004820152601e60248201527f536166654d6174683a207375627472616374696f6e206f766572666c6f770000604482015290519081900360640190fd5b50900390565b60208101516040820151606090920151909260009190911a9056fe5553444350726f78793a20546f6f206d7563682066794461692072657175697265645553444350726f78793a204e6f7420656e6f756768206465627420726570616964536166654d6174683a206d756c7469706c69636174696f6e206f766572666c6f775553444350726f78793a20546f6f206d7563682055534443207265717569726564a26469706673582212207f533438bb549b69cdc1042a1a823c434ce92cf265622c26db38e016e558e47064736f6c634300060a0033",
  "devdoc": {
    "methods": {
      "borrowUSDCForMaximumFYDai(address,bytes32,uint256,address,uint256,uint256)": {
        "details": "Borrow fyDai from Controller, sell it immediately for Dai in a pool, and sell the Dai for USDC in Maker's PSM, for a maximum fyDai debt. Must have approved the operator with `controller.addDelegate(borrowProxy.address)` or with `borrowDaiForMaximumFYDaiWithSignature`. Caller must have called `borrowDaiForMaximumFYDaiWithSignature` at least once before to set proxy approvals.",
        "params": {
          "collateral": "Valid collateral type.",
          "maturity": "Maturity of an added series",
          "maximumFYDai": "Maximum amount of FYDai to borrow.",
          "to": "Wallet to send the resulting Dai to.",
          "usdcToBorrow": "Exact amount of USDC that should be obtained."
        }
      },
      "borrowUSDCForMaximumFYDaiApprove(address)": {
        "details": "Set proxy approvals for `borrowUSDCForMaximumFYDai` with a given pool."
      },
      "borrowUSDCForMaximumFYDaiWithSignature(address,bytes32,uint256,address,uint256,uint256,bytes)": {
        "details": "Borrow fyDai from Controller, sell it immediately for Dai in a pool, and sell the Dai for USDC in Maker's PSM, for a maximum fyDai debt. Must have approved the operator with `controller.addDelegate(borrowProxy.address)` or with `borrowDaiForMaximumFYDaiWithSignature`. Caller must have called `borrowDaiForMaximumFYDaiWithSignature` at least once before to set proxy approvals.",
        "params": {
          "collateral": "Valid collateral type.",
          "controllerSig": "packed signature for delegation of this proxy in the controller. Ignored if '0x'.",
          "maturity": "Maturity of an added series",
          "maximumFYDai": "Maximum amount of FYDai to borrow.",
          "to": "Wallet to send the resulting Dai to.",
          "usdcToBorrow": "Exact amount of USDC that should be obtained."
        }
      },
      "repayAllEarly(address,bytes32,uint256,address,uint256)": {
        "details": "Repay all debt in Controller using for a maximum amount of USDC, reverting if surpassed. Must have approved the operator with `controller.addDelegate(borrowProxy.address)` or with `repayAllWithFYDaiWithSignature`. Must have approved the operator with `pool.addDelegate(borrowProxy.address)` or with `repayAllWithFYDaiWithSignature`.",
        "params": {
          "collateral": "Valid collateral type.",
          "maturity": "Maturity of an added series",
          "maxUSDCIn": "Maximum amount of USDC that should be spent on the repayment.",
          "to": "Yield Vault to repay fyDai debt for."
        }
      },
      "repayAllEarlyWithSignature(address,bytes32,uint256,address,uint256,bytes,bytes)": {
        "details": "Repay all debt in Controller using for a maximum amount of USDC, reverting if surpassed.",
        "params": {
          "collateral": "Valid collateral type.",
          "controllerSig": "packed signature for delegation of this proxy in the controller. Ignored if '0x'.",
          "maturity": "Maturity of an added series",
          "maxUSDCIn": "Maximum amount of USDC that should be spent on the repayment.",
          "to": "Yield Vault to repay fyDai debt for.",
          "usdcSig": "packed signature for permit of USDC transfers to this proxy. Ignored if '0x'."
        }
      },
      "repayAllMature(bytes32,uint256,address)": {
        "details": "Repay all debt for an user and series in Controller using USDC. Must have approved the operator with `controller.addDelegate(borrowProxy.address)` or with `repayAllWithFYDaiWithSignature`. Must have approved the operator with `pool.addDelegate(borrowProxy.address)` or with `repayAllWithFYDaiWithSignature`.",
        "params": {
          "collateral": "Valid collateral type.",
          "maturity": "Maturity of an added series",
          "to": "Yield Vault to repay fyDai debt for."
        },
        "returns": {
          "_0": "Amount of USDC that was taken from the user for the repayment."
        }
      },
      "repayAllMatureWithSignature(bytes32,uint256,address,bytes,bytes)": {
        "details": "Repay all debt for an user in Controller for a mature series using Maker's PSM.",
        "params": {
          "collateral": "Valid collateral type.",
          "controllerSig": "packed signature for delegation of this proxy in the controller. Ignored if '0x'.",
          "maturity": "Maturity of an added series",
          "to": "Yield Vault to repay fyDai debt for.",
          "usdcSig": "packed signature for permit of USDC transfers to this proxy. Ignored if '0x'."
        }
      },
      "repayDebtEarly(address,bytes32,uint256,address,uint256,uint256)": {
        "details": "Repay an amount of fyDai debt in Controller using a given amount of USDC exchanged Dai in Maker's PSM, and then for fyDai at pool rates, with a minimum of fyDai debt required to be paid. Must have approved the operator with `controller.addDelegate(borrowProxy.address)` or with `repayMinimumFYDaiDebtForDaiWithSignature`. Must have approved the operator with `pool.addDelegate(borrowProxy.address)` or with `repayMinimumFYDaiDebtForDaiWithSignature`. If `repaymentInUSDC` exceeds the existing debt, the surplus will be locked in the proxy.",
        "params": {
          "collateral": "Valid collateral type.",
          "maturity": "Maturity of an added series",
          "minFYDaiRepayment": "Minimum amount of fyDai debt to repay.",
          "to": "Yield Vault to repay fyDai debt for.",
          "usdcRepayment": "Exact amount of USDC that should be spent on the repayment."
        }
      },
      "repayDebtEarlyApprove(address)": {
        "details": "Set proxy approvals for `repayDebtEarly` with a given pool."
      },
      "repayDebtEarlyWithSignature(address,bytes32,uint256,address,uint256,uint256,bytes,bytes)": {
        "details": "Repay an amount of fyDai debt in Controller using a given amount of USDC exchanged Dai in Maker's PSM, and then for fyDai at pool rates, with a minimum of fyDai debt required to be paid. If `repaymentInDai` exceeds the existing debt, only the necessary Dai will be used.",
        "params": {
          "collateral": "Valid collateral type.",
          "controllerSig": "packed signature for delegation of this proxy in the controller. Ignored if '0x'.",
          "fyDaiDebt": "Amount of fyDai debt to repay.",
          "maturity": "Maturity of an added series",
          "repaymentInUSDC": "Exact amount of USDC that should be spent on the repayment.",
          "to": "Yield Vault to repay fyDai debt for.",
          "usdcSig": "packed signature for permit of USDC transfers to this proxy. Ignored if '0x'."
        }
      },
      "repayDebtMature(bytes32,uint256,address,uint256)": {
        "details": "Repay an exact amount of Dai-denominated debt in Controller using USDC. Must have approved the operator with `controller.addDelegate(borrowProxy.address)` or with `repayAllWithFYDaiWithSignature`. Must have approved the operator with `pool.addDelegate(borrowProxy.address)` or with `repayAllWithFYDaiWithSignature`.",
        "params": {
          "collateral": "Valid collateral type.",
          "daiRepayment": "Amount of Dai that should be bought from the PSM for the repayment.",
          "maturity": "Maturity of an added series",
          "to": "Yield Vault to repay fyDai debt for."
        },
        "returns": {
          "_0": "Amount of USDC that was taken from the user for the repayment."
        }
      },
      "repayDebtMatureApprove()": {
        "details": "Set proxy approvals for `repayDebtMature`"
      },
      "repayDebtMatureWithSignature(bytes32,uint256,address,uint256,bytes,bytes)": {
        "details": "Repay an amount of fyDai debt in Controller using a given amount of USDC exchanged Dai in Maker's PSM. If the amount of Dai obtained by selling USDC exceeds the existing debt, the surplus will be locked in the proxy.",
        "params": {
          "collateral": "Valid collateral type.",
          "controllerSig": "packed signature for delegation of this proxy in the controller. Ignored if '0x'.",
          "maturity": "Maturity of an added series",
          "repaymentInUSDC": "Exact amount of USDC that should be spent on the repayment.",
          "to": "Yield Vault to repay fyDai debt for.",
          "usdcSig": "packed signature for permit of USDC transfers to this proxy. Ignored if '0x'."
        }
      },
      "tin()": {
        "details": "Return PSM's tin, so the frontend needs to do one less call."
      },
      "tout()": {
        "details": "Return PSM's tout, so the frontend needs to do one less call."
      }
    }
  },
  "userdoc": {
    "methods": {}
  },
  "storageLayout": {
    "storage": [],
    "types": null
  }
}