{
  "address": "0x4E9f6d99E627FF97C7e315AC35Ca45c38062C778",
  "abi": [
    {
      "inputs": [
        {
          "internalType": "contract IController",
          "name": "_controller",
          "type": "address"
        },
        {
          "internalType": "contract DssPsmAbstract",
          "name": "psm_",
          "type": "address"
        }
      ],
      "stateMutability": "nonpayable",
      "type": "constructor"
    },
    {
      "anonymous": false,
      "inputs": [
        {
          "indexed": true,
          "internalType": "address",
          "name": "user",
          "type": "address"
        }
      ],
      "name": "BorrowedUSDC",
      "type": "event"
    },
    {
      "anonymous": false,
      "inputs": [
        {
          "indexed": true,
          "internalType": "address",
          "name": "user",
          "type": "address"
        }
      ],
      "name": "RepaidDebtEarly",
      "type": "event"
    },
    {
      "anonymous": false,
      "inputs": [
        {
          "indexed": true,
          "internalType": "address",
          "name": "user",
          "type": "address"
        }
      ],
      "name": "RepaidDebtMature",
      "type": "event"
    },
    {
      "inputs": [],
      "name": "UNIT",
      "outputs": [
        {
          "internalType": "uint256",
          "name": "",
          "type": "uint256"
        }
      ],
      "stateMutability": "view",
      "type": "function"
    },
    {
      "inputs": [],
      "name": "WETH",
      "outputs": [
        {
          "internalType": "bytes32",
          "name": "",
          "type": "bytes32"
        }
      ],
      "stateMutability": "view",
      "type": "function"
    },
    {
      "inputs": [
        {
          "internalType": "contract IPool",
          "name": "pool",
          "type": "address"
        },
        {
          "internalType": "bytes32",
          "name": "collateral",
          "type": "bytes32"
        },
        {
          "internalType": "uint256",
          "name": "maturity",
          "type": "uint256"
        },
        {
          "internalType": "address",
          "name": "to",
          "type": "address"
        },
        {
          "internalType": "uint256",
          "name": "usdcToBorrow",
          "type": "uint256"
        },
        {
          "internalType": "uint256",
          "name": "maximumFYDai",
          "type": "uint256"
        }
      ],
      "name": "borrowUSDCForMaximumFYDai",
      "outputs": [
        {
          "internalType": "uint256",
          "name": "",
          "type": "uint256"
        }
      ],
      "stateMutability": "nonpayable",
      "type": "function"
    },
    {
      "inputs": [
        {
          "internalType": "contract IPool",
          "name": "pool",
          "type": "address"
        }
      ],
      "name": "borrowUSDCForMaximumFYDaiApprove",
      "outputs": [],
      "stateMutability": "nonpayable",
      "type": "function"
    },
    {
      "inputs": [
        {
          "internalType": "contract IPool",
          "name": "pool",
          "type": "address"
        },
        {
          "internalType": "bytes32",
          "name": "collateral",
          "type": "bytes32"
        },
        {
          "internalType": "uint256",
          "name": "maturity",
          "type": "uint256"
        },
        {
          "internalType": "address",
          "name": "to",
          "type": "address"
        },
        {
          "internalType": "uint256",
          "name": "usdcToBorrow",
          "type": "uint256"
        },
        {
          "internalType": "uint256",
          "name": "maximumFYDai",
          "type": "uint256"
        },
        {
          "internalType": "bytes",
          "name": "controllerSig",
          "type": "bytes"
        }
      ],
      "name": "borrowUSDCForMaximumFYDaiWithSignature",
      "outputs": [
        {
          "internalType": "uint256",
          "name": "",
          "type": "uint256"
        }
      ],
      "stateMutability": "nonpayable",
      "type": "function"
    },
    {
      "inputs": [],
      "name": "controller",
      "outputs": [
        {
          "internalType": "contract IController",
          "name": "",
          "type": "address"
        }
      ],
      "stateMutability": "view",
      "type": "function"
    },
    {
      "inputs": [],
      "name": "dai",
      "outputs": [
        {
          "internalType": "contract DaiAbstract",
          "name": "",
          "type": "address"
        }
      ],
      "stateMutability": "view",
      "type": "function"
    },
    {
      "inputs": [],
      "name": "psm",
      "outputs": [
        {
          "internalType": "contract DssPsmAbstract",
          "name": "",
          "type": "address"
        }
      ],
      "stateMutability": "view",
      "type": "function"
    },
    {
      "inputs": [
        {
          "internalType": "enum IEventRelayer.EventType",
          "name": "eventType",
          "type": "uint8"
        },
        {
          "internalType": "address",
          "name": "user",
          "type": "address"
        }
      ],
      "name": "relay",
      "outputs": [],
      "stateMutability": "nonpayable",
      "type": "function"
    },
    {
      "inputs": [
        {
          "internalType": "contract IPool",
          "name": "pool",
          "type": "address"
        },
        {
          "internalType": "bytes32",
          "name": "collateral",
          "type": "bytes32"
        },
        {
          "internalType": "uint256",
          "name": "maturity",
          "type": "uint256"
        },
        {
          "internalType": "address",
          "name": "to",
          "type": "address"
        },
        {
          "internalType": "uint256",
          "name": "maxUSDCIn",
          "type": "uint256"
        }
      ],
      "name": "repayAllEarly",
      "outputs": [
        {
          "internalType": "uint256",
          "name": "",
          "type": "uint256"
        }
      ],
      "stateMutability": "nonpayable",
      "type": "function"
    },
    {
      "inputs": [
        {
          "internalType": "contract IPool",
          "name": "pool",
          "type": "address"
        },
        {
          "internalType": "bytes32",
          "name": "collateral",
          "type": "bytes32"
        },
        {
          "internalType": "uint256",
          "name": "maturity",
          "type": "uint256"
        },
        {
          "internalType": "address",
          "name": "to",
          "type": "address"
        },
        {
          "internalType": "uint256",
          "name": "maxUSDCIn",
          "type": "uint256"
        },
        {
          "internalType": "bytes",
          "name": "usdcSig",
          "type": "bytes"
        },
        {
          "internalType": "bytes",
          "name": "controllerSig",
          "type": "bytes"
        }
      ],
      "name": "repayAllEarlyWithSignature",
      "outputs": [
        {
          "internalType": "uint256",
          "name": "",
          "type": "uint256"
        }
      ],
      "stateMutability": "nonpayable",
      "type": "function"
    },
    {
      "inputs": [
        {
          "internalType": "bytes32",
          "name": "collateral",
          "type": "bytes32"
        },
        {
          "internalType": "uint256",
          "name": "maturity",
          "type": "uint256"
        },
        {
          "internalType": "address",
          "name": "to",
          "type": "address"
        }
      ],
      "name": "repayAllMature",
      "outputs": [
        {
          "internalType": "uint256",
          "name": "",
          "type": "uint256"
        }
      ],
      "stateMutability": "nonpayable",
      "type": "function"
    },
    {
      "inputs": [
        {
          "internalType": "bytes32",
          "name": "collateral",
          "type": "bytes32"
        },
        {
          "internalType": "uint256",
          "name": "maturity",
          "type": "uint256"
        },
        {
          "internalType": "address",
          "name": "to",
          "type": "address"
        },
        {
          "internalType": "bytes",
          "name": "usdcSig",
          "type": "bytes"
        },
        {
          "internalType": "bytes",
          "name": "controllerSig",
          "type": "bytes"
        }
      ],
      "name": "repayAllMatureWithSignature",
      "outputs": [
        {
          "internalType": "uint256",
          "name": "",
          "type": "uint256"
        }
      ],
      "stateMutability": "nonpayable",
      "type": "function"
    },
    {
      "inputs": [
        {
          "internalType": "contract IPool",
          "name": "pool",
          "type": "address"
        },
        {
          "internalType": "bytes32",
          "name": "collateral",
          "type": "bytes32"
        },
        {
          "internalType": "uint256",
          "name": "maturity",
          "type": "uint256"
        },
        {
          "internalType": "address",
          "name": "to",
          "type": "address"
        },
        {
          "internalType": "uint256",
          "name": "usdcRepayment",
          "type": "uint256"
        },
        {
          "internalType": "uint256",
          "name": "minFYDaiRepayment",
          "type": "uint256"
        }
      ],
      "name": "repayDebtEarly",
      "outputs": [
        {
          "internalType": "uint256",
          "name": "",
          "type": "uint256"
        }
      ],
      "stateMutability": "nonpayable",
      "type": "function"
    },
    {
      "inputs": [
        {
          "internalType": "contract IPool",
          "name": "pool",
          "type": "address"
        }
      ],
      "name": "repayDebtEarlyApprove",
      "outputs": [],
      "stateMutability": "nonpayable",
      "type": "function"
    },
    {
      "inputs": [
        {
          "internalType": "contract IPool",
          "name": "pool",
          "type": "address"
        },
        {
          "internalType": "bytes32",
          "name": "collateral",
          "type": "bytes32"
        },
        {
          "internalType": "uint256",
          "name": "maturity",
          "type": "uint256"
        },
        {
          "internalType": "address",
          "name": "to",
          "type": "address"
        },
        {
          "internalType": "uint256",
          "name": "repaymentInUSDC",
          "type": "uint256"
        },
        {
          "internalType": "uint256",
          "name": "fyDaiDebt",
          "type": "uint256"
        },
        {
          "internalType": "bytes",
          "name": "usdcSig",
          "type": "bytes"
        },
        {
          "internalType": "bytes",
          "name": "controllerSig",
          "type": "bytes"
        }
      ],
      "name": "repayDebtEarlyWithSignature",
      "outputs": [
        {
          "internalType": "uint256",
          "name": "",
          "type": "uint256"
        }
      ],
      "stateMutability": "nonpayable",
      "type": "function"
    },
    {
      "inputs": [
        {
          "internalType": "bytes32",
          "name": "collateral",
          "type": "bytes32"
        },
        {
          "internalType": "uint256",
          "name": "maturity",
          "type": "uint256"
        },
        {
          "internalType": "address",
          "name": "to",
          "type": "address"
        },
        {
          "internalType": "uint256",
          "name": "daiRepayment",
          "type": "uint256"
        }
      ],
      "name": "repayDebtMature",
      "outputs": [
        {
          "internalType": "uint256",
          "name": "",
          "type": "uint256"
        }
      ],
      "stateMutability": "nonpayable",
      "type": "function"
    },
    {
      "inputs": [],
      "name": "repayDebtMatureApprove",
      "outputs": [],
      "stateMutability": "nonpayable",
      "type": "function"
    },
    {
      "inputs": [
        {
          "internalType": "bytes32",
          "name": "collateral",
          "type": "bytes32"
        },
        {
          "internalType": "uint256",
          "name": "maturity",
          "type": "uint256"
        },
        {
          "internalType": "address",
          "name": "to",
          "type": "address"
        },
        {
          "internalType": "uint256",
          "name": "repaymentInUSDC",
          "type": "uint256"
        },
        {
          "internalType": "bytes",
          "name": "usdcSig",
          "type": "bytes"
        },
        {
          "internalType": "bytes",
          "name": "controllerSig",
          "type": "bytes"
        }
      ],
      "name": "repayDebtMatureWithSignature",
      "outputs": [
        {
          "internalType": "uint256",
          "name": "",
          "type": "uint256"
        }
      ],
      "stateMutability": "nonpayable",
      "type": "function"
    },
    {
      "inputs": [],
      "name": "tin",
      "outputs": [
        {
          "internalType": "uint256",
          "name": "",
          "type": "uint256"
        }
      ],
      "stateMutability": "view",
      "type": "function"
    },
    {
      "inputs": [],
      "name": "tout",
      "outputs": [
        {
          "internalType": "uint256",
          "name": "",
          "type": "uint256"
        }
      ],
      "stateMutability": "view",
      "type": "function"
    },
    {
      "inputs": [],
      "name": "treasury",
      "outputs": [
        {
          "internalType": "address",
          "name": "",
          "type": "address"
        }
      ],
      "stateMutability": "view",
      "type": "function"
    },
    {
      "inputs": [],
      "name": "usdc",
      "outputs": [
        {
          "internalType": "contract IUSDC",
          "name": "",
          "type": "address"
        }
      ],
      "stateMutability": "view",
      "type": "function"
    },
    {
      "inputs": [],
      "name": "usdcProxy",
      "outputs": [
        {
          "internalType": "contract IEventRelayer",
          "name": "",
          "type": "address"
        }
      ],
      "stateMutability": "view",
      "type": "function"
    }
  ],
  "transactionHash": "0x85af38224190e4d9364efc19057c5b4cc82e6dd34d5674ac69850d1046caead4",
  "args": [
    "0xB94199866Fe06B535d019C11247D3f921460b91A",
    "0x89B78CfA322F6C5dE0aBcEecab66Aee45393cC5A"
  ],
  "solcInputHash": "dee7d29fd1ee21b38c8c8ddc72f3b373",
  "bytecode": "0x6101406040523480156200001257600080fd5b5060405162003b9138038062003b91833981810160405260408110156200003857600080fd5b508051602091820151604080516361d027b360e01b81529051929391926000926001600160a01b038616926361d027b39260048083019392829003018186803b1580156200008557600080fd5b505afa1580156200009a573d6000803e3d6000fd5b505050506040513d6020811015620000b157600080fd5b50516040805163f4b9fa7560e01b815290519192506001600160a01b0383169163f4b9fa7591600480820192602092909190829003018186803b158015620000f857600080fd5b505afa1580156200010d573d6000803e3d6000fd5b505050506040513d60208110156200012457600080fd5b50516001600160601b0319606091821b811660805282821b81166101205284821b811660c0529083901b1660e0526040805162b327b360e11b815290516001600160a01b038416916301664f66916004808301926020929190829003018186803b1580156200019257600080fd5b505afa158015620001a7573d6000803e3d6000fd5b505050506040513d6020811015620001be57600080fd5b505160408051637bd2bea760e01b815290516001600160a01b0390921691637bd2bea791600480820192602092909190829003018186803b1580156200020357600080fd5b505afa15801562000218573d6000803e3d6000fd5b505050506040513d60208110156200022f57600080fd5b50516001600160601b0319606091821b1660a05230901b6101005250505060805160601c60a05160601c60c05160601c60e05160601c6101005160601c6101205160601c6137e4620003ad600039806117e852806121b0528061228752806127e352806128fd525080611060528061169d52806117c45280612db152806136255250806109ff5280610c525280610fc652806112795280611473528061173a5280611d105280611de75280611f165280612062528061236752806124b352806129a75280612b185280612e4f528061330d52806134c1525080610a405280610ae55280610e5f52806110d952806115ee5280611869528061190a52806119b15280612d025280612e295280612eb05280613574525080610aa452806113bf5280611714528061182852806118c952806119705280611ee65280612033528061233752806124845280612a63528061340c525080611d3e5280611db852806121de5280612258528061260f5280612689528061295b52506137e46000f3fe608060405234801561001057600080fd5b50600436106101985760003560e01c806390c20734116100e3578063e03d5fdb1161008c578063f77c479111610066578063f77c4791146109bb578063fae036d5146109c3578063fb2393fd146109cb57610198565b8063e03d5fdb14610945578063f4b9fa751461096b578063f6f71a501461097357610198565b8063ad5c4648116100bd578063ad5c4648146108fd578063b15f789a14610905578063be36affc1461093d57610198565b806390c207341461089e57806398e42ce7146108cf5780639d8e2177146108f557610198565b8063568d4b6f116101455780636d322b3a1161011f5780636d322b3a146104a15780638f302ba4146105ea5780638f9ae61d1461074857610198565b8063568d4b6f14610489578063616509f11461049157806361d027b31461049957610198565b80632f28e497116101765780632f28e497146103f75780633405d2af1461043f5780633e413bee1461048157610198565b806304bda2621461019d578063212755bf146101c1578063227bb1e2146102a9575b600080fd5b6101a56109fd565b604080516001600160a01b039092168252519081900360200190f35b610297600480360360e08110156101d757600080fd5b6001600160a01b0382358116926020810135926040820135926060830135169160808101359160a0820135919081019060e0810160c082013564010000000081111561022257600080fd5b82018360208201111561023457600080fd5b8035906020019184600183028401116401000000008311171561025657600080fd5b91908080601f016020809104026020016040519081016040528093929190818152602001838380828437600092019190915250929550610a21945050505050565b60408051918252519081900360200190f35b610297600480360360c08110156102bf57600080fd5b8135916020810135916001600160a01b036040830135169160608101359181019060a0810160808201356401000000008111156102fb57600080fd5b82018360208201111561030d57600080fd5b8035906020019184600183028401116401000000008311171561032f57600080fd5b91908080601f016020809104026020016040519081016040528093929190818152602001838380828437600092019190915250929594936020810193503591505064010000000081111561038257600080fd5b82018360208201111561039457600080fd5b803590602001918460018302840111640100000000831117156103b657600080fd5b91908080601f016020809104026020016040519081016040528093929190818152602001838380828437600092019190915250929550610a86945050505050565b610297600480360360c081101561040d57600080fd5b506001600160a01b03813581169160208101359160408201359160608101359091169060808101359060a00135610b28565b610297600480360360a081101561045557600080fd5b506001600160a01b038135811691602081013591604082013591606081013590911690608001356110d4565b6101a5611712565b610297611736565b6101a56117c2565b6101a56117e6565b610297600480360360a08110156104b757600080fd5b8135916020810135916001600160a01b0360408301351691908101906080810160608201356401000000008111156104ee57600080fd5b82018360208201111561050057600080fd5b8035906020019184600183028401116401000000008311171561052257600080fd5b91908080601f016020809104026020016040519081016040528093929190818152602001838380828437600092019190915250929594936020810193503591505064010000000081111561057557600080fd5b82018360208201111561058757600080fd5b803590602001918460018302840111640100000000831117156105a957600080fd5b91908080601f01602080910402602001604051908101604052809392919081815260200183838082843760009201919091525092955061180a945050505050565b610297600480360361010081101561060157600080fd5b6001600160a01b0382358116926020810135926040820135926060830135169160808101359160a0820135919081019060e0810160c082013564010000000081111561064c57600080fd5b82018360208201111561065e57600080fd5b8035906020019184600183028401116401000000008311171561068057600080fd5b91908080601f01602080910402602001604051908101604052809392919081815260200183838082843760009201919091525092959493602081019350359150506401000000008111156106d357600080fd5b8201836020820111156106e557600080fd5b8035906020019184600183028401116401000000008311171561070757600080fd5b91908080601f0160208091040260200160405190810160405280939291908181526020018383808284376000920191909152509295506118aa945050505050565b610297600480360360e081101561075e57600080fd5b6001600160a01b0382358116926020810135926040820135926060830135169160808101359181019060c0810160a08201356401000000008111156107a257600080fd5b8201836020820111156107b457600080fd5b803590602001918460018302840111640100000000831117156107d657600080fd5b91908080601f016020809104026020016040519081016040528093929190818152602001838380828437600092019190915250929594936020810193503591505064010000000081111561082957600080fd5b82018360208201111561083b57600080fd5b8035906020019184600183028401116401000000008311171561085d57600080fd5b91908080601f016020809104026020016040519081016040528093929190818152602001838380828437600092019190915250929550611951945050505050565b6108cd600480360360408110156108b457600080fd5b50803560ff1690602001356001600160a01b03166119ea565b005b6108cd600480360360208110156108e557600080fd5b50356001600160a01b0316611ac9565b610297611e88565b610297611e98565b6102976004803603608081101561091b57600080fd5b508035906020810135906001600160a01b036040820135169060600135611ebc565b6108cd611ed3565b6108cd6004803603602081101561095b57600080fd5b50356001600160a01b0316612324565b6101a5612959565b610297600480360360c081101561098957600080fd5b506001600160a01b03813581169160208101359160408201359160608101359091169060808101359060a0013561297d565b6101a5612e27565b610297612e4b565b610297600480360360608110156109e157600080fd5b50803590602081013590604001356001600160a01b0316612ea6565b7f000000000000000000000000000000000000000000000000000000000000000081565b6000610a2c88611ac9565b815115610a6c57610a6c6001600160a01b037f0000000000000000000000000000000000000000000000000000000000000000168363ffffffff612f6d16565b610a7a888888888888610b28565b98975050505050505050565b6000610a90611ed3565b825115610ad157610ad16001600160a01b037f000000000000000000000000000000000000000000000000000000000000000016308563ffffffff61302816565b815115610b1157610b116001600160a01b037f0000000000000000000000000000000000000000000000000000000000000000168363ffffffff612f6d16565b610b1d87878787611ebc565b979650505050505050565b6000866001600160a01b031663284f44446040518163ffffffff1660e01b815260040160206040518083038186803b158015610b6357600080fd5b505afa158015610b77573d6000803e3d6000fd5b505050506040513d6020811015610b8d57600080fd5b5051604080517f095ea7b30000000000000000000000000000000000000000000000000000000081526001600160a01b038a8116600483015260001960248301529151919092169163095ea7b39160448083019260209291908290030181600087803b158015610bfc57600080fd5b505af1158015610c10573d6000803e3d6000fd5b505050506040513d6020811015610c2657600080fd5b5060009050610c408464e8d4a5100063ffffffff6130ee16565b90506000670de0b6b3a7640000610ce27f00000000000000000000000000000000000000000000000000000000000000006001600160a01b031663fae036d56040518163ffffffff1660e01b815260040160206040518083038186803b158015610ca957600080fd5b505afa158015610cbd573d6000803e3d6000fd5b505050506040513d6020811015610cd357600080fd5b5051849063ffffffff6130ee16565b81610ce957fe5b0490506000610cfe838363ffffffff61316a16565b905060008a6001600160a01b0316634e20e952610d1a846131de565b6040518263ffffffff1660e01b815260040180826fffffffffffffffffffffffffffffffff166fffffffffffffffffffffffffffffffff16815260200191505060206040518083038186803b158015610d7257600080fd5b505afa158015610d86573d6000803e3d6000fd5b505050506040513d6020811015610d9c57600080fd5b50516fffffffffffffffffffffffffffffffff16905085811115610e0b576040517f08c379a000000000000000000000000000000000000000000000000000000000815260040180806020018281038252602281526020018061372a6022913960400191505060405180910390fd5b604080517f801d325f000000000000000000000000000000000000000000000000000000008152600481018c9052602481018b90523360448201523060648201526084810183905290516001600160a01b037f0000000000000000000000000000000000000000000000000000000000000000169163801d325f9160a480830192600092919082900301818387803b158015610ea657600080fd5b505af1158015610eba573d6000803e3d6000fd5b505050508a6001600160a01b031663cc5783d33030610ed8866131de565b604080517fffffffff0000000000000000000000000000000000000000000000000000000060e087901b1681526001600160a01b0394851660048201529290931660248301526fffffffffffffffffffffffffffffffff166044820152905160648083019260209291908290030181600087803b158015610f5857600080fd5b505af1158015610f6c573d6000803e3d6000fd5b505050506040513d6020811015610f8257600080fd5b5050604080517f8d7ef9bb0000000000000000000000000000000000000000000000000000000081526001600160a01b038a81166004830152602482018a905291517f000000000000000000000000000000000000000000000000000000000000000090921691638d7ef9bb9160448082019260009290919082900301818387803b15801561101057600080fd5b505af1158015611024573d6000803e3d6000fd5b5050604080517f90c2073400000000000000000000000000000000000000000000000000000000815260006004820181905233602483015291517f00000000000000000000000000000000000000000000000000000000000000006001600160a01b031694506390c2073493506044808301939282900301818387803b1580156110ad57600080fd5b505af11580156110c1573d6000803e3d6000fd5b50929d9c50505050505050505050505050565b6000807f00000000000000000000000000000000000000000000000000000000000000006001600160a01b03166393252ed48787876040518463ffffffff1660e01b815260040180848152602001838152602001826001600160a01b03166001600160a01b03168152602001935050505060206040518083038186803b15801561115d57600080fd5b505afa158015611171573d6000803e3d6000fd5b505050506040513d602081101561118757600080fd5b5051905060006001600160a01b0388166398ba4aec6111a5846131de565b6040518263ffffffff1660e01b815260040180826fffffffffffffffffffffffffffffffff166fffffffffffffffffffffffffffffffff16815260200191505060206040518083038186803b1580156111fd57600080fd5b505afa158015611211573d6000803e3d6000fd5b505050506040513d602081101561122757600080fd5b5051604080517f568d4b6f00000000000000000000000000000000000000000000000000000000815290516fffffffffffffffffffffffffffffffff9092169250600091611305916001600160a01b037f0000000000000000000000000000000000000000000000000000000000000000169163568d4b6f91600480820192602092909190829003018186803b1580156112c057600080fd5b505afa1580156112d4573d6000803e3d6000fd5b505050506040513d60208110156112ea57600080fd5b5051670de0b6b3a7640000848102910163ffffffff61326316565b9050600061131e8264e8d4a5100063ffffffff61326316565b905085811115611379576040517f08c379a000000000000000000000000000000000000000000000000000000000815260040180806020018281038252602181526020018061378e6021913960400191505060405180910390fd5b604080517f23b872dd0000000000000000000000000000000000000000000000000000000081523360048201523060248201526044810183905290516001600160a01b037f000000000000000000000000000000000000000000000000000000000000000016916323b872dd9160648083019260209291908290030181600087803b15801561140757600080fd5b505af115801561141b573d6000803e3d6000fd5b505050506040513d602081101561143157600080fd5b5050604080517f959912760000000000000000000000000000000000000000000000000000000081523060048201526024810183905290516001600160a01b037f00000000000000000000000000000000000000000000000000000000000000001691639599127691604480830192600092919082900301818387803b1580156114ba57600080fd5b505af11580156114ce573d6000803e3d6000fd5b50505050896001600160a01b0316637543e39c30306114ec886131de565b604080517fffffffff0000000000000000000000000000000000000000000000000000000060e087901b1681526001600160a01b0394851660048201529290931660248301526fffffffffffffffffffffffffffffffff166044820152905160648083019260209291908290030181600087803b15801561156c57600080fd5b505af1158015611580573d6000803e3d6000fd5b505050506040513d602081101561159657600080fd5b5050604080517fb93dd41d000000000000000000000000000000000000000000000000000000008152600481018b9052602481018a90523060448201526001600160a01b0389811660648301526084820187905291517f00000000000000000000000000000000000000000000000000000000000000009092169163b93dd41d9160a4808201926020929091908290030181600087803b15801561163957600080fd5b505af115801561164d573d6000803e3d6000fd5b505050506040513d602081101561166357600080fd5b5050604080517f90c207340000000000000000000000000000000000000000000000000000000081526001600482015233602482015290517f00000000000000000000000000000000000000000000000000000000000000006001600160a01b0316916390c2073491604480830192600092919082900301818387803b1580156116ec57600080fd5b505af1158015611700573d6000803e3d6000fd5b50929c9b505050505050505050505050565b7f000000000000000000000000000000000000000000000000000000000000000081565b60007f00000000000000000000000000000000000000000000000000000000000000006001600160a01b031663568d4b6f6040518163ffffffff1660e01b815260040160206040518083038186803b15801561179157600080fd5b505afa1580156117a5573d6000803e3d6000fd5b505050506040513d60208110156117bb57600080fd5b5051905090565b7f000000000000000000000000000000000000000000000000000000000000000081565b7f000000000000000000000000000000000000000000000000000000000000000081565b6000611814611ed3565b825115611855576118556001600160a01b037f000000000000000000000000000000000000000000000000000000000000000016308563ffffffff61302816565b815115611895576118956001600160a01b037f0000000000000000000000000000000000000000000000000000000000000000168363ffffffff612f6d16565b6118a0868686612ea6565b9695505050505050565b60006118b589612324565b8251156118f6576118f66001600160a01b037f000000000000000000000000000000000000000000000000000000000000000016308563ffffffff61302816565b815115611936576119366001600160a01b037f0000000000000000000000000000000000000000000000000000000000000000168363ffffffff612f6d16565b61194489898989898961297d565b9998505050505050505050565b600061195c88612324565b82511561199d5761199d6001600160a01b037f000000000000000000000000000000000000000000000000000000000000000016308563ffffffff61302816565b8151156119dd576119dd6001600160a01b037f0000000000000000000000000000000000000000000000000000000000000000168363ffffffff612f6d16565b610a7a88888888886110d4565b60008260028111156119f857fe5b1415611a33576040516001600160a01b038216907f1a888041923db3b544b2587e00a20f260730912c72547414d1e0c6ec4bd1587290600090a25b6001826002811115611a4157fe5b1415611a7c576040516001600160a01b038216907f536994b609a8d6eb1b81f108cc8dc06f84ebc4cbd019a1be138860252cdd26f290600090a25b6002826002811115611a8a57fe5b1415611ac5576040516001600160a01b038216907f8104750601fd834f7c17c25542da5a559215f388f8e042b33ff1a1eeab573d3090600090a25b5050565b6dffffffffffffffffffffffffffff8016816001600160a01b031663284f44446040518163ffffffff1660e01b815260040160206040518083038186803b158015611b1357600080fd5b505afa158015611b27573d6000803e3d6000fd5b505050506040513d6020811015611b3d57600080fd5b5051604080517fdd62ed3e0000000000000000000000000000000000000000000000000000000081523060048201526001600160a01b0385811660248301529151919092169163dd62ed3e916044808301926020929190829003018186803b158015611ba857600080fd5b505afa158015611bbc573d6000803e3d6000fd5b505050506040513d6020811015611bd257600080fd5b50511015611cd957806001600160a01b031663284f44446040518163ffffffff1660e01b815260040160206040518083038186803b158015611c1357600080fd5b505afa158015611c27573d6000803e3d6000fd5b505050506040513d6020811015611c3d57600080fd5b5051604080517f095ea7b30000000000000000000000000000000000000000000000000000000081526001600160a01b03848116600483015260001960248301529151919092169163095ea7b39160448083019260209291908290030181600087803b158015611cac57600080fd5b505af1158015611cc0573d6000803e3d6000fd5b505050506040513d6020811015611cd657600080fd5b50505b604080517fdd62ed3e0000000000000000000000000000000000000000000000000000000081523060048201526001600160a01b037f0000000000000000000000000000000000000000000000000000000000000000811660248301529151600019927f0000000000000000000000000000000000000000000000000000000000000000169163dd62ed3e916044808301926020929190829003018186803b158015611d8457600080fd5b505afa158015611d98573d6000803e3d6000fd5b505050506040513d6020811015611dae57600080fd5b50511015611e85577f00000000000000000000000000000000000000000000000000000000000000006001600160a01b031663095ea7b37f00000000000000000000000000000000000000000000000000000000000000006000196040518363ffffffff1660e01b815260040180836001600160a01b03166001600160a01b0316815260200182815260200192505050602060405180830381600087803b158015611e5857600080fd5b505af1158015611e6c573d6000803e3d6000fd5b505050506040513d6020811015611e8257600080fd5b50505b50565b6b033b2e3c9fd0803ce800000081565b7f4554482d4100000000000000000000000000000000000000000000000000000081565b6000611eca85858585613305565b95945050505050565b6dffffffffffffffffffffffffffff80167f00000000000000000000000000000000000000000000000000000000000000006001600160a01b031663dd62ed3e307f00000000000000000000000000000000000000000000000000000000000000006001600160a01b03166301664f666040518163ffffffff1660e01b815260040160206040518083038186803b158015611f6d57600080fd5b505afa158015611f81573d6000803e3d6000fd5b505050506040513d6020811015611f9757600080fd5b5051604080517fffffffff0000000000000000000000000000000000000000000000000000000060e086901b1681526001600160a01b039384166004820152929091166024830152516044808301926020929190829003018186803b158015611fff57600080fd5b505afa158015612013573d6000803e3d6000fd5b505050506040513d602081101561202957600080fd5b50511015612179577f00000000000000000000000000000000000000000000000000000000000000006001600160a01b031663095ea7b37f00000000000000000000000000000000000000000000000000000000000000006001600160a01b03166301664f666040518163ffffffff1660e01b815260040160206040518083038186803b1580156120b957600080fd5b505afa1580156120cd573d6000803e3d6000fd5b505050506040513d60208110156120e357600080fd5b5051604080517fffffffff0000000000000000000000000000000000000000000000000000000060e085901b1681526001600160a01b03909216600483015260001960248301525160448083019260209291908290030181600087803b15801561214c57600080fd5b505af1158015612160573d6000803e3d6000fd5b505050506040513d602081101561217657600080fd5b50505b604080517fdd62ed3e0000000000000000000000000000000000000000000000000000000081523060048201526001600160a01b037f0000000000000000000000000000000000000000000000000000000000000000811660248301529151600019927f0000000000000000000000000000000000000000000000000000000000000000169163dd62ed3e916044808301926020929190829003018186803b15801561222457600080fd5b505afa158015612238573d6000803e3d6000fd5b505050506040513d602081101561224e57600080fd5b50511015612322577f00000000000000000000000000000000000000000000000000000000000000006001600160a01b031663095ea7b37f00000000000000000000000000000000000000000000000000000000000000006000196040518363ffffffff1660e01b815260040180836001600160a01b03166001600160a01b0316815260200182815260200192505050602060405180830381600087803b1580156122f857600080fd5b505af115801561230c573d6000803e3d6000fd5b505050506040513d6020811015611ac557600080fd5b565b6dffffffffffffffffffffffffffff80167f00000000000000000000000000000000000000000000000000000000000000006001600160a01b031663dd62ed3e307f00000000000000000000000000000000000000000000000000000000000000006001600160a01b03166301664f666040518163ffffffff1660e01b815260040160206040518083038186803b1580156123be57600080fd5b505afa1580156123d2573d6000803e3d6000fd5b505050506040513d60208110156123e857600080fd5b5051604080517fffffffff0000000000000000000000000000000000000000000000000000000060e086901b1681526001600160a01b039384166004820152929091166024830152516044808301926020929190829003018186803b15801561245057600080fd5b505afa158015612464573d6000803e3d6000fd5b505050506040513d602081101561247a57600080fd5b505110156125ca577f00000000000000000000000000000000000000000000000000000000000000006001600160a01b031663095ea7b37f00000000000000000000000000000000000000000000000000000000000000006001600160a01b03166301664f666040518163ffffffff1660e01b815260040160206040518083038186803b15801561250a57600080fd5b505afa15801561251e573d6000803e3d6000fd5b505050506040513d602081101561253457600080fd5b5051604080517fffffffff0000000000000000000000000000000000000000000000000000000060e085901b1681526001600160a01b03909216600483015260001960248301525160448083019260209291908290030181600087803b15801561259d57600080fd5b505af11580156125b1573d6000803e3d6000fd5b505050506040513d60208110156125c757600080fd5b50505b604080517fdd62ed3e0000000000000000000000000000000000000000000000000000000081523060048201526001600160a01b0383811660248301529151600019927f0000000000000000000000000000000000000000000000000000000000000000169163dd62ed3e916044808301926020929190829003018186803b15801561265557600080fd5b505afa158015612669573d6000803e3d6000fd5b505050506040513d602081101561267f57600080fd5b50511015612736577f00000000000000000000000000000000000000000000000000000000000000006001600160a01b031663095ea7b3826000196040518363ffffffff1660e01b815260040180836001600160a01b03166001600160a01b0316815260200182815260200192505050602060405180830381600087803b15801561270957600080fd5b505af115801561271d573d6000803e3d6000fd5b505050506040513d602081101561273357600080fd5b50505b6dffffffffffffffffffffffffffff8016816001600160a01b031663284f44446040518163ffffffff1660e01b815260040160206040518083038186803b15801561278057600080fd5b505afa158015612794573d6000803e3d6000fd5b505050506040513d60208110156127aa57600080fd5b5051604080517fdd62ed3e0000000000000000000000000000000000000000000000000000000081523060048201526001600160a01b037f0000000000000000000000000000000000000000000000000000000000000000811660248301529151919092169163dd62ed3e916044808301926020929190829003018186803b15801561283557600080fd5b505afa158015612849573d6000803e3d6000fd5b505050506040513d602081101561285f57600080fd5b50511015611e8557806001600160a01b031663284f44446040518163ffffffff1660e01b815260040160206040518083038186803b1580156128a057600080fd5b505afa1580156128b4573d6000803e3d6000fd5b505050506040513d60208110156128ca57600080fd5b5051604080517f095ea7b30000000000000000000000000000000000000000000000000000000081526001600160a01b037f00000000000000000000000000000000000000000000000000000000000000008116600483015260001960248301529151919092169163095ea7b39160448083019260209291908290030181600087803b158015611e5857600080fd5b7f000000000000000000000000000000000000000000000000000000000000000081565b6000806129958464e8d4a5100063ffffffff6130ee16565b90506000670de0b6b3a76400006129fe7f00000000000000000000000000000000000000000000000000000000000000006001600160a01b031663568d4b6f6040518163ffffffff1660e01b815260040160206040518083038186803b158015610ca957600080fd5b81612a0557fe5b0490506000612a1a838363ffffffff61369716565b604080517f23b872dd0000000000000000000000000000000000000000000000000000000081523360048201523060248201526044810189905290519192506001600160a01b037f000000000000000000000000000000000000000000000000000000000000000016916323b872dd916064808201926020929091908290030181600087803b158015612aac57600080fd5b505af1158015612ac0573d6000803e3d6000fd5b505050506040513d6020811015612ad657600080fd5b5050604080517f959912760000000000000000000000000000000000000000000000000000000081523060048201526024810188905290516001600160a01b037f00000000000000000000000000000000000000000000000000000000000000001691639599127691604480830192600092919082900301818387803b158015612b5f57600080fd5b505af1158015612b73573d6000803e3d6000fd5b5050505060008a6001600160a01b031663b26be9223030612b93866131de565b604080517fffffffff0000000000000000000000000000000000000000000000000000000060e087901b1681526001600160a01b0394851660048201529290931660248301526fffffffffffffffffffffffffffffffff166044820152905160648083019260209291908290030181600087803b158015612c1357600080fd5b505af1158015612c27573d6000803e3d6000fd5b505050506040513d6020811015612c3d57600080fd5b50516fffffffffffffffffffffffffffffffff16905085811015612cac576040517f08c379a000000000000000000000000000000000000000000000000000000000815260040180806020018281038252602181526020018061374c6021913960400191505060405180910390fd5b604080517fb93dd41d000000000000000000000000000000000000000000000000000000008152600481018c9052602481018b90523060448201526001600160a01b038a811660648301526084820184905291517f00000000000000000000000000000000000000000000000000000000000000009092169163b93dd41d9160a4808201926020929091908290030181600087803b158015612d4d57600080fd5b505af1158015612d61573d6000803e3d6000fd5b505050506040513d6020811015612d7757600080fd5b5050604080517f90c207340000000000000000000000000000000000000000000000000000000081526001600482015233602482015290517f00000000000000000000000000000000000000000000000000000000000000006001600160a01b0316916390c2073491604480830192600092919082900301818387803b158015612e0057600080fd5b505af1158015612e14573d6000803e3d6000fd5b50939d9c50505050505050505050505050565b7f000000000000000000000000000000000000000000000000000000000000000081565b60007f00000000000000000000000000000000000000000000000000000000000000006001600160a01b031663fae036d56040518163ffffffff1660e01b815260040160206040518083038186803b15801561179157600080fd5b6000612f658484847f00000000000000000000000000000000000000000000000000000000000000006001600160a01b031663c5ec0c178989336040518463ffffffff1660e01b815260040180848152602001838152602001826001600160a01b03166001600160a01b03168152602001935050505060206040518083038186803b158015612f3457600080fd5b505afa158015612f48573d6000803e3d6000fd5b505050506040513d6020811015612f5e57600080fd5b5051613305565b949350505050565b6000806000612f7b8461370e565b604080517f1a28ff05000000000000000000000000000000000000000000000000000000008152336004820152306024820152600019604482015260ff831660648201526084810185905260a48101849052905193965091945092506001600160a01b03871691631a28ff059160c48082019260009290919082900301818387803b15801561300957600080fd5b505af115801561301d573d6000803e3d6000fd5b505050505050505050565b60008060006130368461370e565b604080517fd505accf0000000000000000000000000000000000000000000000000000000081523360048201526001600160a01b038a8116602483015260001960448301819052606483015260ff8416608483015260a4820186905260c48201859052915194975092955090935088169163d505accf9160e48082019260009290919082900301818387803b1580156130ce57600080fd5b505af11580156130e2573d6000803e3d6000fd5b50505050505050505050565b6000826130fd57506000613164565b8282028284828161310a57fe5b0414613161576040517f08c379a000000000000000000000000000000000000000000000000000000000815260040180806020018281038252602181526020018061376d6021913960400191505060405180910390fd5b90505b92915050565b60008282018381101561316157604080517f08c379a000000000000000000000000000000000000000000000000000000000815260206004820152601b60248201527f536166654d6174683a206164646974696f6e206f766572666c6f770000000000604482015290519081900360640190fd5b60006fffffffffffffffffffffffffffffffff82111561325f57604080517f08c379a000000000000000000000000000000000000000000000000000000000815260206004820152601760248201527f53616665436173743a2043617374206f766572666c6f77000000000000000000604482015290519081900360640190fd5b5090565b60008082116132d357604080517f08c379a000000000000000000000000000000000000000000000000000000000815260206004820152601b60248201527f5553444350726f78793a204469766973696f6e206279207a65726f0000000000604482015290519081900360640190fd5b8183816132dc57fe5b06156132f4578183816132eb57fe5b04600101613161565b8183816132fd57fe5b049392505050565b6000806133aa7f00000000000000000000000000000000000000000000000000000000000000006001600160a01b031663568d4b6f6040518163ffffffff1660e01b815260040160206040518083038186803b15801561336457600080fd5b505afa158015613378573d6000803e3d6000fd5b505050506040513d602081101561338e57600080fd5b5051670de0b6b3a764000085810291900363ffffffff61326316565b905060006133c38264e8d4a5100063ffffffff61326316565b604080517f23b872dd0000000000000000000000000000000000000000000000000000000081523360048201523060248201526044810183905290519192506001600160a01b037f000000000000000000000000000000000000000000000000000000000000000016916323b872dd916064808201926020929091908290030181600087803b15801561345557600080fd5b505af1158015613469573d6000803e3d6000fd5b505050506040513d602081101561347f57600080fd5b5050604080517f959912760000000000000000000000000000000000000000000000000000000081523060048201526024810183905290516001600160a01b037f00000000000000000000000000000000000000000000000000000000000000001691639599127691604480830192600092919082900301818387803b15801561350857600080fd5b505af115801561351c573d6000803e3d6000fd5b5050604080517f25d3cd17000000000000000000000000000000000000000000000000000000008152600481018b9052602481018a90523060448201526001600160a01b0389811660648301526084820189905291517f000000000000000000000000000000000000000000000000000000000000000090921693506325d3cd17925060a4808201926020929091908290030181600087803b1580156135c157600080fd5b505af11580156135d5573d6000803e3d6000fd5b505050506040513d60208110156135eb57600080fd5b5050604080517f90c207340000000000000000000000000000000000000000000000000000000081526002600482015233602482015290517f00000000000000000000000000000000000000000000000000000000000000006001600160a01b0316916390c2073491604480830192600092919082900301818387803b15801561367457600080fd5b505af1158015613688573d6000803e3d6000fd5b50929998505050505050505050565b60008282111561370857604080517f08c379a000000000000000000000000000000000000000000000000000000000815260206004820152601e60248201527f536166654d6174683a207375627472616374696f6e206f766572666c6f770000604482015290519081900360640190fd5b50900390565b60208101516040820151606090920151909260009190911a9056fe5553444350726f78793a20546f6f206d7563682066794461692072657175697265645553444350726f78793a204e6f7420656e6f756768206465627420726570616964536166654d6174683a206d756c7469706c69636174696f6e206f766572666c6f775553444350726f78793a20546f6f206d7563682055534443207265717569726564a2646970667358221220a057438243f45dcdc2af220ea87437b3bd2cc7f27eb9701288648250e48f4c9664736f6c634300060a0033",
  "devdoc": {
    "methods": {
      "borrowUSDCForMaximumFYDai(address,bytes32,uint256,address,uint256,uint256)": {
        "details": "Borrow fyDai from Controller, sell it immediately for Dai in a pool, and sell the Dai for USDC in Maker's PSM, for a maximum fyDai debt. Must have approved the operator with `controller.addDelegate(borrowProxy.address)` or with `borrowDaiForMaximumFYDaiWithSignature`. Caller must have called `borrowDaiForMaximumFYDaiWithSignature` at least once before to set proxy approvals.",
        "params": {
          "collateral": "Valid collateral type.",
          "maturity": "Maturity of an added series",
          "maximumFYDai": "Maximum amount of FYDai to borrow.",
          "to": "Wallet to send the resulting Dai to.",
          "usdcToBorrow": "Exact amount of USDC that should be obtained."
        }
      },
      "borrowUSDCForMaximumFYDaiApprove(address)": {
        "details": "Set proxy approvals for `borrowUSDCForMaximumFYDai` with a given pool."
      },
      "borrowUSDCForMaximumFYDaiWithSignature(address,bytes32,uint256,address,uint256,uint256,bytes)": {
        "details": "Borrow fyDai from Controller, sell it immediately for Dai in a pool, and sell the Dai for USDC in Maker's PSM, for a maximum fyDai debt. Must have approved the operator with `controller.addDelegate(borrowProxy.address)` or with `borrowDaiForMaximumFYDaiWithSignature`. Caller must have called `borrowDaiForMaximumFYDaiWithSignature` at least once before to set proxy approvals.",
        "params": {
          "collateral": "Valid collateral type.",
          "controllerSig": "packed signature for delegation of this proxy in the controller. Ignored if '0x'.",
          "maturity": "Maturity of an added series",
          "maximumFYDai": "Maximum amount of FYDai to borrow.",
          "to": "Wallet to send the resulting Dai to.",
          "usdcToBorrow": "Exact amount of USDC that should be obtained."
        }
      },
      "relay(uint8,address)": {
        "details": "Workaround to emit events from the USDCProxy contract when being executed through a dsProxy delegate call."
      },
      "repayAllEarly(address,bytes32,uint256,address,uint256)": {
        "details": "Repay all debt in Controller using for a maximum amount of USDC, reverting if surpassed. Must have approved the operator with `controller.addDelegate(borrowProxy.address)` or with `repayAllWithFYDaiWithSignature`. Must have approved the operator with `pool.addDelegate(borrowProxy.address)` or with `repayAllWithFYDaiWithSignature`.",
        "params": {
          "collateral": "Valid collateral type.",
          "maturity": "Maturity of an added series",
          "maxUSDCIn": "Maximum amount of USDC that should be spent on the repayment.",
          "to": "Yield Vault to repay fyDai debt for."
        }
      },
      "repayAllEarlyWithSignature(address,bytes32,uint256,address,uint256,bytes,bytes)": {
        "details": "Repay all debt in Controller using for a maximum amount of USDC, reverting if surpassed.",
        "params": {
          "collateral": "Valid collateral type.",
          "controllerSig": "packed signature for delegation of this proxy in the controller. Ignored if '0x'.",
          "maturity": "Maturity of an added series",
          "maxUSDCIn": "Maximum amount of USDC that should be spent on the repayment.",
          "to": "Yield Vault to repay fyDai debt for.",
          "usdcSig": "packed signature for permit of USDC transfers to this proxy. Ignored if '0x'."
        }
      },
      "repayAllMature(bytes32,uint256,address)": {
        "details": "Repay all debt for an user and series in Controller using USDC. Must have approved the operator with `controller.addDelegate(borrowProxy.address)` or with `repayAllWithFYDaiWithSignature`. Must have approved the operator with `pool.addDelegate(borrowProxy.address)` or with `repayAllWithFYDaiWithSignature`.",
        "params": {
          "collateral": "Valid collateral type.",
          "maturity": "Maturity of an added series",
          "to": "Yield Vault to repay fyDai debt for."
        },
        "returns": {
          "_0": "Amount of USDC that was taken from the user for the repayment."
        }
      },
      "repayAllMatureWithSignature(bytes32,uint256,address,bytes,bytes)": {
        "details": "Repay all debt for an user in Controller for a mature series using Maker's PSM.",
        "params": {
          "collateral": "Valid collateral type.",
          "controllerSig": "packed signature for delegation of this proxy in the controller. Ignored if '0x'.",
          "maturity": "Maturity of an added series",
          "to": "Yield Vault to repay fyDai debt for.",
          "usdcSig": "packed signature for permit of USDC transfers to this proxy. Ignored if '0x'."
        }
      },
      "repayDebtEarly(address,bytes32,uint256,address,uint256,uint256)": {
        "details": "Repay an amount of fyDai debt in Controller using a given amount of USDC exchanged Dai in Maker's PSM, and then for fyDai at pool rates, with a minimum of fyDai debt required to be paid. Must have approved the operator with `controller.addDelegate(borrowProxy.address)` or with `repayMinimumFYDaiDebtForDaiWithSignature`. Must have approved the operator with `pool.addDelegate(borrowProxy.address)` or with `repayMinimumFYDaiDebtForDaiWithSignature`. If `repaymentInUSDC` exceeds the existing debt, the surplus will be locked in the proxy.",
        "params": {
          "collateral": "Valid collateral type.",
          "maturity": "Maturity of an added series",
          "minFYDaiRepayment": "Minimum amount of fyDai debt to repay.",
          "to": "Yield Vault to repay fyDai debt for.",
          "usdcRepayment": "Exact amount of USDC that should be spent on the repayment."
        }
      },
      "repayDebtEarlyApprove(address)": {
        "details": "Set proxy approvals for `repayDebtEarly` with a given pool."
      },
      "repayDebtEarlyWithSignature(address,bytes32,uint256,address,uint256,uint256,bytes,bytes)": {
        "details": "Repay an amount of fyDai debt in Controller using a given amount of USDC exchanged Dai in Maker's PSM, and then for fyDai at pool rates, with a minimum of fyDai debt required to be paid. If `repaymentInDai` exceeds the existing debt, only the necessary Dai will be used.",
        "params": {
          "collateral": "Valid collateral type.",
          "controllerSig": "packed signature for delegation of this proxy in the controller. Ignored if '0x'.",
          "fyDaiDebt": "Amount of fyDai debt to repay.",
          "maturity": "Maturity of an added series",
          "repaymentInUSDC": "Exact amount of USDC that should be spent on the repayment.",
          "to": "Yield Vault to repay fyDai debt for.",
          "usdcSig": "packed signature for permit of USDC transfers to this proxy. Ignored if '0x'."
        }
      },
      "repayDebtMature(bytes32,uint256,address,uint256)": {
        "details": "Repay an exact amount of Dai-denominated debt in Controller using USDC. Must have approved the operator with `controller.addDelegate(borrowProxy.address)` or with `repayAllWithFYDaiWithSignature`. Must have approved the operator with `pool.addDelegate(borrowProxy.address)` or with `repayAllWithFYDaiWithSignature`.",
        "params": {
          "collateral": "Valid collateral type.",
          "daiRepayment": "Amount of Dai that should be bought from the PSM for the repayment.",
          "maturity": "Maturity of an added series",
          "to": "Yield Vault to repay fyDai debt for."
        },
        "returns": {
          "_0": "Amount of USDC that was taken from the user for the repayment."
        }
      },
      "repayDebtMatureApprove()": {
        "details": "Set proxy approvals for `repayDebtMature`"
      },
      "repayDebtMatureWithSignature(bytes32,uint256,address,uint256,bytes,bytes)": {
        "details": "Repay an amount of fyDai debt in Controller using a given amount of USDC exchanged Dai in Maker's PSM. If the amount of Dai obtained by selling USDC exceeds the existing debt, the surplus will be locked in the proxy.",
        "params": {
          "collateral": "Valid collateral type.",
          "controllerSig": "packed signature for delegation of this proxy in the controller. Ignored if '0x'.",
          "maturity": "Maturity of an added series",
          "repaymentInUSDC": "Exact amount of USDC that should be spent on the repayment.",
          "to": "Yield Vault to repay fyDai debt for.",
          "usdcSig": "packed signature for permit of USDC transfers to this proxy. Ignored if '0x'."
        }
      },
      "tin()": {
        "details": "Return PSM's tin, so the frontend needs to do one less call."
      },
      "tout()": {
        "details": "Return PSM's tout, so the frontend needs to do one less call."
      }
    }
  },
  "userdoc": {
    "methods": {}
  },
  "storageLayout": {
    "storage": [],
    "types": null
  }
}