{
  "address": "0x53DFb0D02CB0Bf1a5ABc0fDb9c0566E1E69E2a28",
  "abi": [
    {
      "inputs": [
        {
          "internalType": "contract IController",
          "name": "_controller",
          "type": "address"
        },
        {
          "internalType": "contract DssPsmAbstract",
          "name": "psm_",
          "type": "address"
        }
      ],
      "stateMutability": "nonpayable",
      "type": "constructor"
    },
    {
      "inputs": [],
      "name": "UNIT",
      "outputs": [
        {
          "internalType": "uint256",
          "name": "",
          "type": "uint256"
        }
      ],
      "stateMutability": "view",
      "type": "function"
    },
    {
      "inputs": [],
      "name": "WETH",
      "outputs": [
        {
          "internalType": "bytes32",
          "name": "",
          "type": "bytes32"
        }
      ],
      "stateMutability": "view",
      "type": "function"
    },
    {
      "inputs": [
        {
          "internalType": "contract IPool",
          "name": "pool",
          "type": "address"
        },
        {
          "internalType": "bytes32",
          "name": "collateral",
          "type": "bytes32"
        },
        {
          "internalType": "uint256",
          "name": "maturity",
          "type": "uint256"
        },
        {
          "internalType": "address",
          "name": "to",
          "type": "address"
        },
        {
          "internalType": "uint256",
          "name": "usdcToBorrow",
          "type": "uint256"
        },
        {
          "internalType": "uint256",
          "name": "maximumFYDai",
          "type": "uint256"
        }
      ],
      "name": "borrowUSDCForMaximumFYDai",
      "outputs": [
        {
          "internalType": "uint256",
          "name": "",
          "type": "uint256"
        }
      ],
      "stateMutability": "nonpayable",
      "type": "function"
    },
    {
      "inputs": [
        {
          "internalType": "contract IPool",
          "name": "pool",
          "type": "address"
        }
      ],
      "name": "borrowUSDCForMaximumFYDaiApprove",
      "outputs": [],
      "stateMutability": "nonpayable",
      "type": "function"
    },
    {
      "inputs": [
        {
          "internalType": "contract IPool",
          "name": "pool",
          "type": "address"
        },
        {
          "internalType": "bytes32",
          "name": "collateral",
          "type": "bytes32"
        },
        {
          "internalType": "uint256",
          "name": "maturity",
          "type": "uint256"
        },
        {
          "internalType": "address",
          "name": "to",
          "type": "address"
        },
        {
          "internalType": "uint256",
          "name": "usdcToBorrow",
          "type": "uint256"
        },
        {
          "internalType": "uint256",
          "name": "maximumFYDai",
          "type": "uint256"
        },
        {
          "internalType": "bytes",
          "name": "controllerSig",
          "type": "bytes"
        }
      ],
      "name": "borrowUSDCForMaximumFYDaiWithSignature",
      "outputs": [
        {
          "internalType": "uint256",
          "name": "",
          "type": "uint256"
        }
      ],
      "stateMutability": "nonpayable",
      "type": "function"
    },
    {
      "inputs": [],
      "name": "controller",
      "outputs": [
        {
          "internalType": "contract IController",
          "name": "",
          "type": "address"
        }
      ],
      "stateMutability": "view",
      "type": "function"
    },
    {
      "inputs": [],
      "name": "dai",
      "outputs": [
        {
          "internalType": "contract DaiAbstract",
          "name": "",
          "type": "address"
        }
      ],
      "stateMutability": "view",
      "type": "function"
    },
    {
      "inputs": [],
      "name": "psm",
      "outputs": [
        {
          "internalType": "contract DssPsmAbstract",
          "name": "",
          "type": "address"
        }
      ],
      "stateMutability": "view",
      "type": "function"
    },
    {
      "inputs": [
        {
          "internalType": "contract IPool",
          "name": "pool",
          "type": "address"
        },
        {
          "internalType": "bytes32",
          "name": "collateral",
          "type": "bytes32"
        },
        {
          "internalType": "uint256",
          "name": "maturity",
          "type": "uint256"
        },
        {
          "internalType": "address",
          "name": "to",
          "type": "address"
        },
        {
          "internalType": "uint256",
          "name": "maxUSDCIn",
          "type": "uint256"
        }
      ],
      "name": "repayAllEarly",
      "outputs": [
        {
          "internalType": "uint256",
          "name": "",
          "type": "uint256"
        }
      ],
      "stateMutability": "nonpayable",
      "type": "function"
    },
    {
      "inputs": [
        {
          "internalType": "contract IPool",
          "name": "pool",
          "type": "address"
        },
        {
          "internalType": "bytes32",
          "name": "collateral",
          "type": "bytes32"
        },
        {
          "internalType": "uint256",
          "name": "maturity",
          "type": "uint256"
        },
        {
          "internalType": "address",
          "name": "to",
          "type": "address"
        },
        {
          "internalType": "uint256",
          "name": "maxUSDCIn",
          "type": "uint256"
        },
        {
          "internalType": "bytes",
          "name": "usdcSig",
          "type": "bytes"
        },
        {
          "internalType": "bytes",
          "name": "controllerSig",
          "type": "bytes"
        }
      ],
      "name": "repayAllEarlyWithSignature",
      "outputs": [
        {
          "internalType": "uint256",
          "name": "",
          "type": "uint256"
        }
      ],
      "stateMutability": "nonpayable",
      "type": "function"
    },
    {
      "inputs": [
        {
          "internalType": "bytes32",
          "name": "collateral",
          "type": "bytes32"
        },
        {
          "internalType": "uint256",
          "name": "maturity",
          "type": "uint256"
        },
        {
          "internalType": "address",
          "name": "to",
          "type": "address"
        }
      ],
      "name": "repayAllMature",
      "outputs": [
        {
          "internalType": "uint256",
          "name": "",
          "type": "uint256"
        }
      ],
      "stateMutability": "nonpayable",
      "type": "function"
    },
    {
      "inputs": [
        {
          "internalType": "bytes32",
          "name": "collateral",
          "type": "bytes32"
        },
        {
          "internalType": "uint256",
          "name": "maturity",
          "type": "uint256"
        },
        {
          "internalType": "address",
          "name": "to",
          "type": "address"
        },
        {
          "internalType": "bytes",
          "name": "usdcSig",
          "type": "bytes"
        },
        {
          "internalType": "bytes",
          "name": "controllerSig",
          "type": "bytes"
        }
      ],
      "name": "repayAllMatureWithSignature",
      "outputs": [
        {
          "internalType": "uint256",
          "name": "",
          "type": "uint256"
        }
      ],
      "stateMutability": "nonpayable",
      "type": "function"
    },
    {
      "inputs": [
        {
          "internalType": "contract IPool",
          "name": "pool",
          "type": "address"
        },
        {
          "internalType": "bytes32",
          "name": "collateral",
          "type": "bytes32"
        },
        {
          "internalType": "uint256",
          "name": "maturity",
          "type": "uint256"
        },
        {
          "internalType": "address",
          "name": "to",
          "type": "address"
        },
        {
          "internalType": "uint256",
          "name": "usdcRepayment",
          "type": "uint256"
        },
        {
          "internalType": "uint256",
          "name": "minFYDaiRepayment",
          "type": "uint256"
        }
      ],
      "name": "repayDebtEarly",
      "outputs": [
        {
          "internalType": "uint256",
          "name": "",
          "type": "uint256"
        }
      ],
      "stateMutability": "nonpayable",
      "type": "function"
    },
    {
      "inputs": [
        {
          "internalType": "contract IPool",
          "name": "pool",
          "type": "address"
        }
      ],
      "name": "repayDebtEarlyApprove",
      "outputs": [],
      "stateMutability": "nonpayable",
      "type": "function"
    },
    {
      "inputs": [
        {
          "internalType": "contract IPool",
          "name": "pool",
          "type": "address"
        },
        {
          "internalType": "bytes32",
          "name": "collateral",
          "type": "bytes32"
        },
        {
          "internalType": "uint256",
          "name": "maturity",
          "type": "uint256"
        },
        {
          "internalType": "address",
          "name": "to",
          "type": "address"
        },
        {
          "internalType": "uint256",
          "name": "repaymentInUSDC",
          "type": "uint256"
        },
        {
          "internalType": "uint256",
          "name": "fyDaiDebt",
          "type": "uint256"
        },
        {
          "internalType": "bytes",
          "name": "usdcSig",
          "type": "bytes"
        },
        {
          "internalType": "bytes",
          "name": "controllerSig",
          "type": "bytes"
        }
      ],
      "name": "repayDebtEarlyWithSignature",
      "outputs": [
        {
          "internalType": "uint256",
          "name": "",
          "type": "uint256"
        }
      ],
      "stateMutability": "nonpayable",
      "type": "function"
    },
    {
      "inputs": [
        {
          "internalType": "bytes32",
          "name": "collateral",
          "type": "bytes32"
        },
        {
          "internalType": "uint256",
          "name": "maturity",
          "type": "uint256"
        },
        {
          "internalType": "address",
          "name": "to",
          "type": "address"
        },
        {
          "internalType": "uint256",
          "name": "daiRepayment",
          "type": "uint256"
        }
      ],
      "name": "repayDebtMature",
      "outputs": [
        {
          "internalType": "uint256",
          "name": "",
          "type": "uint256"
        }
      ],
      "stateMutability": "nonpayable",
      "type": "function"
    },
    {
      "inputs": [],
      "name": "repayDebtMatureApprove",
      "outputs": [],
      "stateMutability": "nonpayable",
      "type": "function"
    },
    {
      "inputs": [
        {
          "internalType": "bytes32",
          "name": "collateral",
          "type": "bytes32"
        },
        {
          "internalType": "uint256",
          "name": "maturity",
          "type": "uint256"
        },
        {
          "internalType": "address",
          "name": "to",
          "type": "address"
        },
        {
          "internalType": "uint256",
          "name": "repaymentInUSDC",
          "type": "uint256"
        },
        {
          "internalType": "bytes",
          "name": "usdcSig",
          "type": "bytes"
        },
        {
          "internalType": "bytes",
          "name": "controllerSig",
          "type": "bytes"
        }
      ],
      "name": "repayDebtMatureWithSignature",
      "outputs": [
        {
          "internalType": "uint256",
          "name": "",
          "type": "uint256"
        }
      ],
      "stateMutability": "nonpayable",
      "type": "function"
    },
    {
      "inputs": [],
      "name": "treasury",
      "outputs": [
        {
          "internalType": "address",
          "name": "",
          "type": "address"
        }
      ],
      "stateMutability": "view",
      "type": "function"
    },
    {
      "inputs": [],
      "name": "usdc",
      "outputs": [
        {
          "internalType": "contract IUSDC",
          "name": "",
          "type": "address"
        }
      ],
      "stateMutability": "view",
      "type": "function"
    }
  ],
  "transactionHash": "0x4a8728a433052650a272c9cb221544f854edf6e097188905fd91e6a6ccab2a41",
  "args": [
    "0xFCDF6d4de26C53115610D9FBdaFD93CBDb843Ea2",
    "0xe4dC42e438879987e287A6d9519379936d7b065A"
  ],
  "solcInputHash": "c00539a3636946f7af57ce65252fbf8a",
  "bytecode": "0x6101206040523480156200001257600080fd5b5060405162003a0538038062003a05833981810160405260408110156200003857600080fd5b508051602091820151604080516361d027b360e01b81529051929391926000926001600160a01b038616926361d027b39260048083019392829003018186803b1580156200008557600080fd5b505afa1580156200009a573d6000803e3d6000fd5b505050506040513d6020811015620000b157600080fd5b50516040805163f4b9fa7560e01b815290519192506001600160a01b0383169163f4b9fa7591600480820192602092909190829003018186803b158015620000f857600080fd5b505afa1580156200010d573d6000803e3d6000fd5b505050506040513d60208110156200012457600080fd5b50516001600160601b0319606091821b811660805282821b81166101005284821b811660c0529083901b1660e0526040805162b327b360e11b815290516001600160a01b038416916301664f66916004808301926020929190829003018186803b1580156200019257600080fd5b505afa158015620001a7573d6000803e3d6000fd5b505050506040513d6020811015620001be57600080fd5b505160408051637bd2bea760e01b815290516001600160a01b0390921691637bd2bea791600480820192602092909190829003018186803b1580156200020357600080fd5b505afa15801562000218573d6000803e3d6000fd5b505050506040513d60208110156200022f57600080fd5b50516001600160601b031960609190911b1660a05250505060805160601c60a05160601c60c05160601c60e05160601c6101005160601c6136896200037c6000398061172b52806121255280612209528061281e5280612952525080610a355280610cf0528061109552806112e752806114df5280611c035280611ce75280611e3d5280611fb05280612313528061248652806129e35280612b7b528061323852806133f9525080610a835280610b425280610f07528061110a528061168152806117c6528061188152806119425280612d8c5280612e135280612e3f52806134b9525080610af4528061141e52806117075280611778528061183352806118f45280611e005280611f7452806122d6528061244a5280612ab95280613338525080611c315280611cab528061215352806121cd5280612609528061268352806129b052506136896000f3fe608060405234801561001057600080fd5b506004361061016c5760003560e01c806398e42ce7116100cd578063e03d5fdb11610081578063f6f71a5011610066578063f6f71a5014610997578063f77c4791146109ec578063fb2393fd146109f45761016c565b8063e03d5fdb1461095c578063f4b9fa751461098f5761016c565b8063ad5c4648116100b2578063ad5c464814610907578063b15f789a1461090f578063be36affc146109545761016c565b806398e42ce7146108ca5780639d8e2177146108ff5761016c565b80633e413bee116101245780636d322b3a116101095780636d322b3a146104a65780638f302ba4146105fc5780638f9ae61d146107675761016c565b80633e413bee1461049657806361d027b31461049e5761016c565b8063227bb1e211610155578063227bb1e2146102975780632f28e497146103f25780633405d2af146104475761016c565b806304bda26214610171578063212755bf146101a2575b600080fd5b610179610a33565b6040805173ffffffffffffffffffffffffffffffffffffffff9092168252519081900360200190f35b610285600480360360e08110156101b857600080fd5b73ffffffffffffffffffffffffffffffffffffffff82358116926020810135926040820135926060830135169160808101359160a0820135919081019060e0810160c082013564010000000081111561021057600080fd5b82018360208201111561022257600080fd5b8035906020019184600183028401116401000000008311171561024457600080fd5b91908080601f016020809104026020016040519081016040528093929190818152602001838380828437600092019190915250929550610a57945050505050565b60408051918252519081900360200190f35b610285600480360360c08110156102ad57600080fd5b81359160208101359173ffffffffffffffffffffffffffffffffffffffff6040830135169160608101359181019060a0810160808201356401000000008111156102f657600080fd5b82018360208201111561030857600080fd5b8035906020019184600183028401116401000000008311171561032a57600080fd5b91908080601f016020809104026020016040519081016040528093929190818152602001838380828437600092019190915250929594936020810193503591505064010000000081111561037d57600080fd5b82018360208201111561038f57600080fd5b803590602001918460018302840111640100000000831117156103b157600080fd5b91908080601f016020809104026020016040519081016040528093929190818152602001838380828437600092019190915250929550610ac9945050505050565b610285600480360360c081101561040857600080fd5b5073ffffffffffffffffffffffffffffffffffffffff813581169160208101359160408201359160608101359091169060808101359060a00135610b85565b610285600480360360a081101561045d57600080fd5b5073ffffffffffffffffffffffffffffffffffffffff813581169160208101359160408201359160608101359091169060800135611105565b610179611705565b610179611729565b610285600480360360a08110156104bc57600080fd5b81359160208101359173ffffffffffffffffffffffffffffffffffffffff604083013516919081019060808101606082013564010000000081111561050057600080fd5b82018360208201111561051257600080fd5b8035906020019184600183028401116401000000008311171561053457600080fd5b91908080601f016020809104026020016040519081016040528093929190818152602001838380828437600092019190915250929594936020810193503591505064010000000081111561058757600080fd5b82018360208201111561059957600080fd5b803590602001918460018302840111640100000000831117156105bb57600080fd5b91908080601f01602080910402602001604051908101604052809392919081815260200183838082843760009201919091525092955061174d945050505050565b610285600480360361010081101561061357600080fd5b73ffffffffffffffffffffffffffffffffffffffff82358116926020810135926040820135926060830135169160808101359160a0820135919081019060e0810160c082013564010000000081111561066b57600080fd5b82018360208201111561067d57600080fd5b8035906020019184600183028401116401000000008311171561069f57600080fd5b91908080601f01602080910402602001604051908101604052809392919081815260200183838082843760009201919091525092959493602081019350359150506401000000008111156106f257600080fd5b82018360208201111561070457600080fd5b8035906020019184600183028401116401000000008311171561072657600080fd5b91908080601f016020809104026020016040519081016040528093929190818152602001838380828437600092019190915250929550611807945050505050565b610285600480360360e081101561077d57600080fd5b73ffffffffffffffffffffffffffffffffffffffff82358116926020810135926040820135926060830135169160808101359181019060c0810160a08201356401000000008111156107ce57600080fd5b8201836020820111156107e057600080fd5b8035906020019184600183028401116401000000008311171561080257600080fd5b91908080601f016020809104026020016040519081016040528093929190818152602001838380828437600092019190915250929594936020810193503591505064010000000081111561085557600080fd5b82018360208201111561086757600080fd5b8035906020019184600183028401116401000000008311171561088957600080fd5b91908080601f0160208091040260200160405190810160405280939291908181526020018383808284376000920191909152509295506118c8945050505050565b6108fd600480360360208110156108e057600080fd5b503573ffffffffffffffffffffffffffffffffffffffff1661197b565b005b610285611da2565b610285611db2565b6102856004803603608081101561092557600080fd5b5080359060208101359073ffffffffffffffffffffffffffffffffffffffff6040820135169060600135611dd6565b6108fd611ded565b6108fd6004803603602081101561097257600080fd5b503573ffffffffffffffffffffffffffffffffffffffff166122c3565b6101796129ae565b610285600480360360c08110156109ad57600080fd5b5073ffffffffffffffffffffffffffffffffffffffff813581169160208101359160408201359160608101359091169060808101359060a001356129d2565b610179612e11565b61028560048036036060811015610a0a57600080fd5b508035906020810135906040013573ffffffffffffffffffffffffffffffffffffffff16612e35565b7f000000000000000000000000000000000000000000000000000000000000000081565b6000610a628861197b565b815115610aaf57610aaf73ffffffffffffffffffffffffffffffffffffffff7f0000000000000000000000000000000000000000000000000000000000000000168363ffffffff612f2316565b610abd888888888888610b85565b98975050505050505050565b6000610ad3611ded565b825115610b2157610b2173ffffffffffffffffffffffffffffffffffffffff7f000000000000000000000000000000000000000000000000000000000000000016308563ffffffff612feb16565b815115610b6e57610b6e73ffffffffffffffffffffffffffffffffffffffff7f0000000000000000000000000000000000000000000000000000000000000000168363ffffffff612f2316565b610b7a87878787611dd6565b979650505050505050565b60008673ffffffffffffffffffffffffffffffffffffffff1663284f44446040518163ffffffff1660e01b815260040160206040518083038186803b158015610bcd57600080fd5b505afa158015610be1573d6000803e3d6000fd5b505050506040513d6020811015610bf757600080fd5b5051604080517f095ea7b300000000000000000000000000000000000000000000000000000000815273ffffffffffffffffffffffffffffffffffffffff8a8116600483015260001960248301529151919092169163095ea7b39160448083019260209291908290030181600087803b158015610c7357600080fd5b505af1158015610c87573d6000803e3d6000fd5b505050506040513d6020811015610c9d57600080fd5b5050604080517ffae036d50000000000000000000000000000000000000000000000000000000081529051600091670de0b6b3a764000091610d709173ffffffffffffffffffffffffffffffffffffffff7f0000000000000000000000000000000000000000000000000000000000000000169163fae036d591600480820192602092909190829003018186803b158015610d3757600080fd5b505afa158015610d4b573d6000803e3d6000fd5b505050506040513d6020811015610d6157600080fd5b5051869063ffffffff6130be16565b81610d7757fe5b0490506000610d8c858363ffffffff61313a16565b905060008973ffffffffffffffffffffffffffffffffffffffff16634e20e952610db5846131ae565b6040518263ffffffff1660e01b815260040180826fffffffffffffffffffffffffffffffff166fffffffffffffffffffffffffffffffff16815260200191505060206040518083038186803b158015610e0d57600080fd5b505afa158015610e21573d6000803e3d6000fd5b505050506040513d6020811015610e3757600080fd5b50516fffffffffffffffffffffffffffffffff16905084811115610ea6576040517f08c379a00000000000000000000000000000000000000000000000000000000081526004018080602001828103825260228152602001806135cf6022913960400191505060405180910390fd5b604080517f801d325f000000000000000000000000000000000000000000000000000000008152600481018b9052602481018a905233604482015230606482015260848101839052905173ffffffffffffffffffffffffffffffffffffffff7f0000000000000000000000000000000000000000000000000000000000000000169163801d325f9160a480830192600092919082900301818387803b158015610f4e57600080fd5b505af1158015610f62573d6000803e3d6000fd5b505050508973ffffffffffffffffffffffffffffffffffffffff1663cc5783d33030610f8d866131ae565b604080517fffffffff0000000000000000000000000000000000000000000000000000000060e087901b16815273ffffffffffffffffffffffffffffffffffffffff94851660048201529290931660248301526fffffffffffffffffffffffffffffffff166044820152905160648083019260209291908290030181600087803b15801561101a57600080fd5b505af115801561102e573d6000803e3d6000fd5b505050506040513d602081101561104457600080fd5b5050604080517f8d7ef9bb00000000000000000000000000000000000000000000000000000000815273ffffffffffffffffffffffffffffffffffffffff89811660048301526024820189905291517f000000000000000000000000000000000000000000000000000000000000000090921691638d7ef9bb9160448082019260009290919082900301818387803b1580156110df57600080fd5b505af11580156110f3573d6000803e3d6000fd5b50929c9b505050505050505050505050565b6000807f000000000000000000000000000000000000000000000000000000000000000073ffffffffffffffffffffffffffffffffffffffff166393252ed48787876040518463ffffffff1660e01b8152600401808481526020018381526020018273ffffffffffffffffffffffffffffffffffffffff1673ffffffffffffffffffffffffffffffffffffffff168152602001935050505060206040518083038186803b1580156111b557600080fd5b505afa1580156111c9573d6000803e3d6000fd5b505050506040513d60208110156111df57600080fd5b50519050600073ffffffffffffffffffffffffffffffffffffffff88166398ba4aec61120a846131ae565b6040518263ffffffff1660e01b815260040180826fffffffffffffffffffffffffffffffff166fffffffffffffffffffffffffffffffff16815260200191505060206040518083038186803b15801561126257600080fd5b505afa158015611276573d6000803e3d6000fd5b505050506040513d602081101561128c57600080fd5b5051604080517f568d4b6f00000000000000000000000000000000000000000000000000000000815290516fffffffffffffffffffffffffffffffff909216925060009173ffffffffffffffffffffffffffffffffffffffff7f0000000000000000000000000000000000000000000000000000000000000000169163568d4b6f916004808301926020929190829003018186803b15801561132d57600080fd5b505afa158015611341573d6000803e3d6000fd5b505050506040513d602081101561135757600080fd5b5051670de0b6b3a76400009081019083028161136f57fe5b049050848111156113cb576040517f08c379a00000000000000000000000000000000000000000000000000000000081526004018080602001828103825260218152602001806136336021913960400191505060405180910390fd5b604080517f23b872dd00000000000000000000000000000000000000000000000000000000815233600482015230602482015260448101839052905173ffffffffffffffffffffffffffffffffffffffff7f000000000000000000000000000000000000000000000000000000000000000016916323b872dd9160648083019260209291908290030181600087803b15801561146657600080fd5b505af115801561147a573d6000803e3d6000fd5b505050506040513d602081101561149057600080fd5b5050604080517f9599127600000000000000000000000000000000000000000000000000000000815230600482015260248101839052905173ffffffffffffffffffffffffffffffffffffffff7f00000000000000000000000000000000000000000000000000000000000000001691639599127691604480830192600092919082900301818387803b15801561152657600080fd5b505af115801561153a573d6000803e3d6000fd5b505050508873ffffffffffffffffffffffffffffffffffffffff16637543e39c3030611565876131ae565b604080517fffffffff0000000000000000000000000000000000000000000000000000000060e087901b16815273ffffffffffffffffffffffffffffffffffffffff94851660048201529290931660248301526fffffffffffffffffffffffffffffffff166044820152905160648083019260209291908290030181600087803b1580156115f257600080fd5b505af1158015611606573d6000803e3d6000fd5b505050506040513d602081101561161c57600080fd5b5050604080517fb93dd41d000000000000000000000000000000000000000000000000000000008152600481018a90526024810189905230604482015273ffffffffffffffffffffffffffffffffffffffff88811660648301526084820186905291517f00000000000000000000000000000000000000000000000000000000000000009092169163b93dd41d9160a4808201926020929091908290030181600087803b1580156116cc57600080fd5b505af11580156116e0573d6000803e3d6000fd5b505050506040513d60208110156116f657600080fd5b50909998505050505050505050565b7f000000000000000000000000000000000000000000000000000000000000000081565b7f000000000000000000000000000000000000000000000000000000000000000081565b6000611757611ded565b8251156117a5576117a573ffffffffffffffffffffffffffffffffffffffff7f000000000000000000000000000000000000000000000000000000000000000016308563ffffffff612feb16565b8151156117f2576117f273ffffffffffffffffffffffffffffffffffffffff7f0000000000000000000000000000000000000000000000000000000000000000168363ffffffff612f2316565b6117fd868686612e35565b9695505050505050565b6000611812896122c3565b8251156118605761186073ffffffffffffffffffffffffffffffffffffffff7f000000000000000000000000000000000000000000000000000000000000000016308563ffffffff612feb16565b8151156118ad576118ad73ffffffffffffffffffffffffffffffffffffffff7f0000000000000000000000000000000000000000000000000000000000000000168363ffffffff612f2316565b6118bb8989898989896129d2565b9998505050505050505050565b60006118d3886122c3565b8251156119215761192173ffffffffffffffffffffffffffffffffffffffff7f000000000000000000000000000000000000000000000000000000000000000016308563ffffffff612feb16565b81511561196e5761196e73ffffffffffffffffffffffffffffffffffffffff7f0000000000000000000000000000000000000000000000000000000000000000168363ffffffff612f2316565b610abd8888888888611105565b6dffffffffffffffffffffffffffff80168173ffffffffffffffffffffffffffffffffffffffff1663284f44446040518163ffffffff1660e01b815260040160206040518083038186803b1580156119d257600080fd5b505afa1580156119e6573d6000803e3d6000fd5b505050506040513d60208110156119fc57600080fd5b5051604080517fdd62ed3e00000000000000000000000000000000000000000000000000000000815230600482015273ffffffffffffffffffffffffffffffffffffffff85811660248301529151919092169163dd62ed3e916044808301926020929190829003018186803b158015611a7457600080fd5b505afa158015611a88573d6000803e3d6000fd5b505050506040513d6020811015611a9e57600080fd5b50511015611bbf578073ffffffffffffffffffffffffffffffffffffffff1663284f44446040518163ffffffff1660e01b815260040160206040518083038186803b158015611aec57600080fd5b505afa158015611b00573d6000803e3d6000fd5b505050506040513d6020811015611b1657600080fd5b5051604080517f095ea7b300000000000000000000000000000000000000000000000000000000815273ffffffffffffffffffffffffffffffffffffffff848116600483015260001960248301529151919092169163095ea7b39160448083019260209291908290030181600087803b158015611b9257600080fd5b505af1158015611ba6573d6000803e3d6000fd5b505050506040513d6020811015611bbc57600080fd5b50505b604080517fdd62ed3e00000000000000000000000000000000000000000000000000000000815230600482015273ffffffffffffffffffffffffffffffffffffffff7f0000000000000000000000000000000000000000000000000000000000000000811660248301529151600019927f0000000000000000000000000000000000000000000000000000000000000000169163dd62ed3e916044808301926020929190829003018186803b158015611c7757600080fd5b505afa158015611c8b573d6000803e3d6000fd5b505050506040513d6020811015611ca157600080fd5b50511015611d9f577f000000000000000000000000000000000000000000000000000000000000000073ffffffffffffffffffffffffffffffffffffffff1663095ea7b37f00000000000000000000000000000000000000000000000000000000000000006000196040518363ffffffff1660e01b8152600401808373ffffffffffffffffffffffffffffffffffffffff1673ffffffffffffffffffffffffffffffffffffffff16815260200182815260200192505050602060405180830381600087803b158015611d7257600080fd5b505af1158015611d86573d6000803e3d6000fd5b505050506040513d6020811015611d9c57600080fd5b50505b50565b6b033b2e3c9fd0803ce800000081565b7f4554482d4100000000000000000000000000000000000000000000000000000081565b6000611de485858585613233565b95945050505050565b6dffffffffffffffffffffffffffff80167f000000000000000000000000000000000000000000000000000000000000000073ffffffffffffffffffffffffffffffffffffffff1663dd62ed3e307f000000000000000000000000000000000000000000000000000000000000000073ffffffffffffffffffffffffffffffffffffffff166301664f666040518163ffffffff1660e01b815260040160206040518083038186803b158015611ea157600080fd5b505afa158015611eb5573d6000803e3d6000fd5b505050506040513d6020811015611ecb57600080fd5b5051604080517fffffffff0000000000000000000000000000000000000000000000000000000060e086901b16815273ffffffffffffffffffffffffffffffffffffffff9384166004820152929091166024830152516044808301926020929190829003018186803b158015611f4057600080fd5b505afa158015611f54573d6000803e3d6000fd5b505050506040513d6020811015611f6a57600080fd5b505110156120e1577f000000000000000000000000000000000000000000000000000000000000000073ffffffffffffffffffffffffffffffffffffffff1663095ea7b37f000000000000000000000000000000000000000000000000000000000000000073ffffffffffffffffffffffffffffffffffffffff166301664f666040518163ffffffff1660e01b815260040160206040518083038186803b15801561201457600080fd5b505afa158015612028573d6000803e3d6000fd5b505050506040513d602081101561203e57600080fd5b5051604080517fffffffff0000000000000000000000000000000000000000000000000000000060e085901b16815273ffffffffffffffffffffffffffffffffffffffff909216600483015260001960248301525160448083019260209291908290030181600087803b1580156120b457600080fd5b505af11580156120c8573d6000803e3d6000fd5b505050506040513d60208110156120de57600080fd5b50505b604080517fdd62ed3e00000000000000000000000000000000000000000000000000000000815230600482015273ffffffffffffffffffffffffffffffffffffffff7f0000000000000000000000000000000000000000000000000000000000000000811660248301529151600019927f0000000000000000000000000000000000000000000000000000000000000000169163dd62ed3e916044808301926020929190829003018186803b15801561219957600080fd5b505afa1580156121ad573d6000803e3d6000fd5b505050506040513d60208110156121c357600080fd5b505110156122c1577f000000000000000000000000000000000000000000000000000000000000000073ffffffffffffffffffffffffffffffffffffffff1663095ea7b37f00000000000000000000000000000000000000000000000000000000000000006000196040518363ffffffff1660e01b8152600401808373ffffffffffffffffffffffffffffffffffffffff1673ffffffffffffffffffffffffffffffffffffffff16815260200182815260200192505050602060405180830381600087803b15801561229457600080fd5b505af11580156122a8573d6000803e3d6000fd5b505050506040513d60208110156122be57600080fd5b50505b565b6dffffffffffffffffffffffffffff80167f000000000000000000000000000000000000000000000000000000000000000073ffffffffffffffffffffffffffffffffffffffff1663dd62ed3e307f000000000000000000000000000000000000000000000000000000000000000073ffffffffffffffffffffffffffffffffffffffff166301664f666040518163ffffffff1660e01b815260040160206040518083038186803b15801561237757600080fd5b505afa15801561238b573d6000803e3d6000fd5b505050506040513d60208110156123a157600080fd5b5051604080517fffffffff0000000000000000000000000000000000000000000000000000000060e086901b16815273ffffffffffffffffffffffffffffffffffffffff9384166004820152929091166024830152516044808301926020929190829003018186803b15801561241657600080fd5b505afa15801561242a573d6000803e3d6000fd5b505050506040513d602081101561244057600080fd5b505110156125b7577f000000000000000000000000000000000000000000000000000000000000000073ffffffffffffffffffffffffffffffffffffffff1663095ea7b37f000000000000000000000000000000000000000000000000000000000000000073ffffffffffffffffffffffffffffffffffffffff166301664f666040518163ffffffff1660e01b815260040160206040518083038186803b1580156124ea57600080fd5b505afa1580156124fe573d6000803e3d6000fd5b505050506040513d602081101561251457600080fd5b5051604080517fffffffff0000000000000000000000000000000000000000000000000000000060e085901b16815273ffffffffffffffffffffffffffffffffffffffff909216600483015260001960248301525160448083019260209291908290030181600087803b15801561258a57600080fd5b505af115801561259e573d6000803e3d6000fd5b505050506040513d60208110156125b457600080fd5b50505b604080517fdd62ed3e00000000000000000000000000000000000000000000000000000000815230600482015273ffffffffffffffffffffffffffffffffffffffff83811660248301529151600019927f0000000000000000000000000000000000000000000000000000000000000000169163dd62ed3e916044808301926020929190829003018186803b15801561264f57600080fd5b505afa158015612663573d6000803e3d6000fd5b505050506040513d602081101561267957600080fd5b50511015612757577f000000000000000000000000000000000000000000000000000000000000000073ffffffffffffffffffffffffffffffffffffffff1663095ea7b3826000196040518363ffffffff1660e01b8152600401808373ffffffffffffffffffffffffffffffffffffffff1673ffffffffffffffffffffffffffffffffffffffff16815260200182815260200192505050602060405180830381600087803b15801561272a57600080fd5b505af115801561273e573d6000803e3d6000fd5b505050506040513d602081101561275457600080fd5b50505b6dffffffffffffffffffffffffffff80168173ffffffffffffffffffffffffffffffffffffffff1663284f44446040518163ffffffff1660e01b815260040160206040518083038186803b1580156127ae57600080fd5b505afa1580156127c2573d6000803e3d6000fd5b505050506040513d60208110156127d857600080fd5b5051604080517fdd62ed3e00000000000000000000000000000000000000000000000000000000815230600482015273ffffffffffffffffffffffffffffffffffffffff7f0000000000000000000000000000000000000000000000000000000000000000811660248301529151919092169163dd62ed3e916044808301926020929190829003018186803b15801561287057600080fd5b505afa158015612884573d6000803e3d6000fd5b505050506040513d602081101561289a57600080fd5b50511015611d9f578073ffffffffffffffffffffffffffffffffffffffff1663284f44446040518163ffffffff1660e01b815260040160206040518083038186803b1580156128e857600080fd5b505afa1580156128fc573d6000803e3d6000fd5b505050506040513d602081101561291257600080fd5b5051604080517f095ea7b300000000000000000000000000000000000000000000000000000000815273ffffffffffffffffffffffffffffffffffffffff7f00000000000000000000000000000000000000000000000000000000000000008116600483015260001960248301529151919092169163095ea7b39160448083019260209291908290030181600087803b158015611d7257600080fd5b7f000000000000000000000000000000000000000000000000000000000000000081565b600080670de0b6b3a7640000612a477f000000000000000000000000000000000000000000000000000000000000000073ffffffffffffffffffffffffffffffffffffffff1663568d4b6f6040518163ffffffff1660e01b815260040160206040518083038186803b158015610d3757600080fd5b81612a4e57fe5b0490506000612a63858363ffffffff61353c16565b604080517f23b872dd00000000000000000000000000000000000000000000000000000000815233600482015230602482015260448101889052905191925073ffffffffffffffffffffffffffffffffffffffff7f000000000000000000000000000000000000000000000000000000000000000016916323b872dd916064808201926020929091908290030181600087803b158015612b0257600080fd5b505af1158015612b16573d6000803e3d6000fd5b505050506040513d6020811015612b2c57600080fd5b5050604080517f9599127600000000000000000000000000000000000000000000000000000000815230600482015260248101879052905173ffffffffffffffffffffffffffffffffffffffff7f00000000000000000000000000000000000000000000000000000000000000001691639599127691604480830192600092919082900301818387803b158015612bc257600080fd5b505af1158015612bd6573d6000803e3d6000fd5b5050505060008973ffffffffffffffffffffffffffffffffffffffff1663b26be9223030612c03866131ae565b604080517fffffffff0000000000000000000000000000000000000000000000000000000060e087901b16815273ffffffffffffffffffffffffffffffffffffffff94851660048201529290931660248301526fffffffffffffffffffffffffffffffff166044820152905160648083019260209291908290030181600087803b158015612c9057600080fd5b505af1158015612ca4573d6000803e3d6000fd5b505050506040513d6020811015612cba57600080fd5b50516fffffffffffffffffffffffffffffffff16905084811015612d29576040517f08c379a00000000000000000000000000000000000000000000000000000000081526004018080602001828103825260218152602001806135f16021913960400191505060405180910390fd5b604080517fb93dd41d000000000000000000000000000000000000000000000000000000008152600481018b9052602481018a905230604482015273ffffffffffffffffffffffffffffffffffffffff89811660648301526084820184905291517f00000000000000000000000000000000000000000000000000000000000000009092169163b93dd41d9160a4808201926020929091908290030181600087803b158015612dd757600080fd5b505af1158015612deb573d6000803e3d6000fd5b505050506040513d6020811015612e0157600080fd5b50919a9950505050505050505050565b7f000000000000000000000000000000000000000000000000000000000000000081565b6000612f1b8484847f000000000000000000000000000000000000000000000000000000000000000073ffffffffffffffffffffffffffffffffffffffff1663c5ec0c178989336040518463ffffffff1660e01b8152600401808481526020018381526020018273ffffffffffffffffffffffffffffffffffffffff1673ffffffffffffffffffffffffffffffffffffffff168152602001935050505060206040518083038186803b158015612eea57600080fd5b505afa158015612efe573d6000803e3d6000fd5b505050506040513d6020811015612f1457600080fd5b5051613233565b949350505050565b6000806000612f31846135b3565b604080517f1a28ff05000000000000000000000000000000000000000000000000000000008152336004820152306024820152600019604482015260ff831660648201526084810185905260a481018490529051939650919450925073ffffffffffffffffffffffffffffffffffffffff871691631a28ff059160c48082019260009290919082900301818387803b158015612fcc57600080fd5b505af1158015612fe0573d6000803e3d6000fd5b505050505050505050565b6000806000612ff9846135b3565b604080517fd505accf00000000000000000000000000000000000000000000000000000000815233600482015273ffffffffffffffffffffffffffffffffffffffff8a8116602483015260001960448301819052606483015260ff8416608483015260a4820186905260c48201859052915194975092955090935088169163d505accf9160e48082019260009290919082900301818387803b15801561309e57600080fd5b505af11580156130b2573d6000803e3d6000fd5b50505050505050505050565b6000826130cd57506000613134565b828202828482816130da57fe5b0414613131576040517f08c379a00000000000000000000000000000000000000000000000000000000081526004018080602001828103825260218152602001806136126021913960400191505060405180910390fd5b90505b92915050565b60008282018381101561313157604080517f08c379a000000000000000000000000000000000000000000000000000000000815260206004820152601b60248201527f536166654d6174683a206164646974696f6e206f766572666c6f770000000000604482015290519081900360640190fd5b60006fffffffffffffffffffffffffffffffff82111561322f57604080517f08c379a000000000000000000000000000000000000000000000000000000000815260206004820152601760248201527f53616665436173743a2043617374206f766572666c6f77000000000000000000604482015290519081900360640190fd5b5090565b6000807f000000000000000000000000000000000000000000000000000000000000000073ffffffffffffffffffffffffffffffffffffffff1663568d4b6f6040518163ffffffff1660e01b815260040160206040518083038186803b15801561329c57600080fd5b505afa1580156132b0573d6000803e3d6000fd5b505050506040513d60208110156132c657600080fd5b5051670de0b6b3a7640000908103908402816132de57fe5b604080517f23b872dd0000000000000000000000000000000000000000000000000000000081523360048201523060248201529290910460448301819052905190925073ffffffffffffffffffffffffffffffffffffffff7f000000000000000000000000000000000000000000000000000000000000000016916323b872dd9160648083019260209291908290030181600087803b15801561338057600080fd5b505af1158015613394573d6000803e3d6000fd5b505050506040513d60208110156133aa57600080fd5b5050604080517f9599127600000000000000000000000000000000000000000000000000000000815230600482015260248101839052905173ffffffffffffffffffffffffffffffffffffffff7f00000000000000000000000000000000000000000000000000000000000000001691639599127691604480830192600092919082900301818387803b15801561344057600080fd5b505af1158015613454573d6000803e3d6000fd5b5050604080517f25d3cd17000000000000000000000000000000000000000000000000000000008152600481018a90526024810189905230604482015273ffffffffffffffffffffffffffffffffffffffff88811660648301526084820188905291517f000000000000000000000000000000000000000000000000000000000000000090921693506325d3cd17925060a4808201926020929091908290030181600087803b15801561350657600080fd5b505af115801561351a573d6000803e3d6000fd5b505050506040513d602081101561353057600080fd5b50909695505050505050565b6000828211156135ad57604080517f08c379a000000000000000000000000000000000000000000000000000000000815260206004820152601e60248201527f536166654d6174683a207375627472616374696f6e206f766572666c6f770000604482015290519081900360640190fd5b50900390565b60208101516040820151606090920151909260009190911a9056fe5553444350726f78793a20546f6f206d7563682066794461692072657175697265645553444350726f78793a204e6f7420656e6f756768206465627420726570616964536166654d6174683a206d756c7469706c69636174696f6e206f766572666c6f775553444350726f78793a20546f6f206d7563682055534443207265717569726564a2646970667358221220d8da7eaa7e0ce3d80f652fbee69241322508b9df90cfa7056353e5cec988430b64736f6c634300060a0033",
  "devdoc": {
    "methods": {
      "borrowUSDCForMaximumFYDai(address,bytes32,uint256,address,uint256,uint256)": {
        "details": "Borrow fyDai from Controller, sell it immediately for Dai in a pool, and sell the Dai for USDC in Maker's PSM, for a maximum fyDai debt. Must have approved the operator with `controller.addDelegate(borrowProxy.address)` or with `borrowDaiForMaximumFYDaiWithSignature`. Caller must have called `borrowDaiForMaximumFYDaiWithSignature` at least once before to set proxy approvals.",
        "params": {
          "collateral": "Valid collateral type.",
          "maturity": "Maturity of an added series",
          "maximumFYDai": "Maximum amount of FYDai to borrow.",
          "to": "Wallet to send the resulting Dai to.",
          "usdcToBorrow": "Exact amount of USDC that should be obtained."
        }
      },
      "borrowUSDCForMaximumFYDaiApprove(address)": {
        "details": "Set proxy approvals for `borrowUSDCForMaximumFYDai` with a given pool."
      },
      "borrowUSDCForMaximumFYDaiWithSignature(address,bytes32,uint256,address,uint256,uint256,bytes)": {
        "details": "Borrow fyDai from Controller, sell it immediately for Dai in a pool, and sell the Dai for USDC in Maker's PSM, for a maximum fyDai debt. Must have approved the operator with `controller.addDelegate(borrowProxy.address)` or with `borrowDaiForMaximumFYDaiWithSignature`. Caller must have called `borrowDaiForMaximumFYDaiWithSignature` at least once before to set proxy approvals.",
        "params": {
          "collateral": "Valid collateral type.",
          "controllerSig": "packed signature for delegation of this proxy in the controller. Ignored if '0x'.",
          "maturity": "Maturity of an added series",
          "maximumFYDai": "Maximum amount of FYDai to borrow.",
          "to": "Wallet to send the resulting Dai to.",
          "usdcToBorrow": "Exact amount of USDC that should be obtained."
        }
      },
      "repayAllEarly(address,bytes32,uint256,address,uint256)": {
        "details": "Repay all debt in Controller using for a maximum amount of USDC, reverting if surpassed. Must have approved the operator with `controller.addDelegate(borrowProxy.address)` or with `repayAllWithFYDaiWithSignature`. Must have approved the operator with `pool.addDelegate(borrowProxy.address)` or with `repayAllWithFYDaiWithSignature`.",
        "params": {
          "collateral": "Valid collateral type.",
          "maturity": "Maturity of an added series",
          "maxUSDCIn": "Maximum amount of USDC that should be spent on the repayment.",
          "to": "Yield Vault to repay fyDai debt for."
        }
      },
      "repayAllEarlyWithSignature(address,bytes32,uint256,address,uint256,bytes,bytes)": {
        "details": "Repay all debt in Controller using for a maximum amount of USDC, reverting if surpassed.",
        "params": {
          "collateral": "Valid collateral type.",
          "controllerSig": "packed signature for delegation of this proxy in the controller. Ignored if '0x'.",
          "maturity": "Maturity of an added series",
          "maxUSDCIn": "Maximum amount of USDC that should be spent on the repayment.",
          "to": "Yield Vault to repay fyDai debt for.",
          "usdcSig": "packed signature for permit of USDC transfers to this proxy. Ignored if '0x'."
        }
      },
      "repayAllMature(bytes32,uint256,address)": {
        "details": "Repay all debt for an user and series in Controller using USDC. Must have approved the operator with `controller.addDelegate(borrowProxy.address)` or with `repayAllWithFYDaiWithSignature`. Must have approved the operator with `pool.addDelegate(borrowProxy.address)` or with `repayAllWithFYDaiWithSignature`.",
        "params": {
          "collateral": "Valid collateral type.",
          "maturity": "Maturity of an added series",
          "to": "Yield Vault to repay fyDai debt for."
        },
        "returns": {
          "_0": "Amount of USDC that was taken from the user for the repayment."
        }
      },
      "repayAllMatureWithSignature(bytes32,uint256,address,bytes,bytes)": {
        "details": "Repay all debt for an user in Controller for a mature series using Maker's PSM.",
        "params": {
          "collateral": "Valid collateral type.",
          "controllerSig": "packed signature for delegation of this proxy in the controller. Ignored if '0x'.",
          "maturity": "Maturity of an added series",
          "to": "Yield Vault to repay fyDai debt for.",
          "usdcSig": "packed signature for permit of USDC transfers to this proxy. Ignored if '0x'."
        }
      },
      "repayDebtEarly(address,bytes32,uint256,address,uint256,uint256)": {
        "details": "Repay an amount of fyDai debt in Controller using a given amount of USDC exchanged Dai in Maker's PSM, and then for fyDai at pool rates, with a minimum of fyDai debt required to be paid. Must have approved the operator with `controller.addDelegate(borrowProxy.address)` or with `repayMinimumFYDaiDebtForDaiWithSignature`. Must have approved the operator with `pool.addDelegate(borrowProxy.address)` or with `repayMinimumFYDaiDebtForDaiWithSignature`. If `repaymentInUSDC` exceeds the existing debt, the surplus will be locked in the proxy.",
        "params": {
          "collateral": "Valid collateral type.",
          "maturity": "Maturity of an added series",
          "minFYDaiRepayment": "Minimum amount of fyDai debt to repay.",
          "to": "Yield Vault to repay fyDai debt for.",
          "usdcRepayment": "Exact amount of USDC that should be spent on the repayment."
        }
      },
      "repayDebtEarlyApprove(address)": {
        "details": "Set proxy approvals for `repayDebtEarly` with a given pool."
      },
      "repayDebtEarlyWithSignature(address,bytes32,uint256,address,uint256,uint256,bytes,bytes)": {
        "details": "Repay an amount of fyDai debt in Controller using a given amount of USDC exchanged Dai in Maker's PSM, and then for fyDai at pool rates, with a minimum of fyDai debt required to be paid. If `repaymentInDai` exceeds the existing debt, only the necessary Dai will be used.",
        "params": {
          "collateral": "Valid collateral type.",
          "controllerSig": "packed signature for delegation of this proxy in the controller. Ignored if '0x'.",
          "fyDaiDebt": "Amount of fyDai debt to repay.",
          "maturity": "Maturity of an added series",
          "repaymentInUSDC": "Exact amount of USDC that should be spent on the repayment.",
          "to": "Yield Vault to repay fyDai debt for.",
          "usdcSig": "packed signature for permit of USDC transfers to this proxy. Ignored if '0x'."
        }
      },
      "repayDebtMature(bytes32,uint256,address,uint256)": {
        "details": "Repay an exact amount of Dai-denominated debt in Controller using USDC. Must have approved the operator with `controller.addDelegate(borrowProxy.address)` or with `repayAllWithFYDaiWithSignature`. Must have approved the operator with `pool.addDelegate(borrowProxy.address)` or with `repayAllWithFYDaiWithSignature`.",
        "params": {
          "collateral": "Valid collateral type.",
          "daiRepayment": "Amount of Dai that should be bought from the PSM for the repayment.",
          "maturity": "Maturity of an added series",
          "to": "Yield Vault to repay fyDai debt for."
        },
        "returns": {
          "_0": "Amount of USDC that was taken from the user for the repayment."
        }
      },
      "repayDebtMatureApprove()": {
        "details": "Set proxy approvals for `repayDebtMature`"
      },
      "repayDebtMatureWithSignature(bytes32,uint256,address,uint256,bytes,bytes)": {
        "details": "Repay an amount of fyDai debt in Controller using a given amount of USDC exchanged Dai in Maker's PSM. If the amount of Dai obtained by selling USDC exceeds the existing debt, the surplus will be locked in the proxy.",
        "params": {
          "collateral": "Valid collateral type.",
          "controllerSig": "packed signature for delegation of this proxy in the controller. Ignored if '0x'.",
          "maturity": "Maturity of an added series",
          "repaymentInUSDC": "Exact amount of USDC that should be spent on the repayment.",
          "to": "Yield Vault to repay fyDai debt for.",
          "usdcSig": "packed signature for permit of USDC transfers to this proxy. Ignored if '0x'."
        }
      }
    }
  },
  "userdoc": {
    "methods": {}
  },
  "storageLayout": {
    "storage": [],
    "types": null
  }
}